{
  "abi": [
    {
      "inputs": [
        {
          "internalType": "address",
          "name": "wethAddress",
          "type": "address"
        }
      ],
      "stateMutability": "nonpayable",
      "type": "constructor"
    },
    {
      "inputs": [],
      "name": "WETH",
      "outputs": [
        {
          "internalType": "address",
          "name": "",
          "type": "address"
        }
      ],
      "stateMutability": "view",
      "type": "function"
    },
    {
      "inputs": [
        {
          "internalType": "address",
          "name": "to",
          "type": "address"
        }
      ],
      "name": "unwrapAndSendETH",
      "outputs": [],
      "stateMutability": "nonpayable",
      "type": "function"
    },
    {
      "stateMutability": "payable",
      "type": "receive"
    }
  ],
  "bytecode": {
    "object": "0x60a060405234801561001057600080fd5b5060405161040f38038061040f83398101604081905261002f91610040565b6001600160a01b0316608052610070565b60006020828403121561005257600080fd5b81516001600160a01b038116811461006957600080fd5b9392505050565b60805161037861009760003960008181604b0152818160c301526101a501526103786000f3fe60806040526004361061002d5760003560e01c8063ad5c464814610039578063e89632c21461008957600080fd5b3661003457005b600080fd5b34801561004557600080fd5b5061006d7f000000000000000000000000000000000000000000000000000000000000000081565b6040516001600160a01b03909116815260200160405180910390f35b34801561009557600080fd5b506100a96100a43660046102ca565b6100ab565b005b6040516370a0823160e01b81523060048201526000907f00000000000000000000000000000000000000000000000000000000000000006001600160a01b0316906370a08231906024016020604051808303816000875af1158015610114573d6000803e3d6000fd5b505050506040513d601f19601f8201168201806040525081019061013891906102fa565b90506000811161018f5760405162461bcd60e51b815260206004820152601160248201527f496e73756666696369656e74205745544800000000000000000000000000000060448201526064015b60405180910390fd5b604051632e1a7d4d60e01b8152600481018290527f00000000000000000000000000000000000000000000000000000000000000006001600160a01b031690632e1a7d4d90602401600060405180830381600087803b1580156101f157600080fd5b505af1158015610205573d6000803e3d6000fd5b5050604080516000808252602082019283905293506001600160a01b038616925047916102329190610313565b60006040518083038185875af1925050503d806000811461026f576040519150601f19603f3d011682016040523d82523d6000602084013e610274565b606091505b50509050806102c55760405162461bcd60e51b815260206004820152601460248201527f457468207472616e73666572204661696c65642e0000000000000000000000006044820152606401610186565b505050565b6000602082840312156102dc57600080fd5b81356001600160a01b03811681146102f357600080fd5b9392505050565b60006020828403121561030c57600080fd5b5051919050565b6000825160005b81811015610334576020818601810151858301520161031a565b50600092019182525091905056fea2646970667358221220f3a595fbd536c197a0a2983bca7ca5fd9809bd3b09219664e00a3a3757a8d80864736f6c63430008110033",
    "linkReferences": {}
  },
  "methodIdentifiers": {
    "WETH()": "ad5c4648",
    "unwrapAndSendETH(address)": "e89632c2"
  },
  "id": 1
}