{
  "abi": [
    {
      "inputs": [
        {
          "components": [
            {
              "internalType": "address",
              "name": "target",
              "type": "address"
            },
            {
              "internalType": "bytes",
              "name": "callData",
              "type": "bytes"
            },
            {
              "internalType": "bytes",
              "name": "clipboard",
              "type": "bytes"
            }
          ],
          "internalType": "struct AdvancedPipeCall[]",
          "name": "pipes",
          "type": "tuple[]"
        },
        {
          "internalType": "uint256",
          "name": "value",
          "type": "uint256"
        }
      ],
      "name": "advancedPipe",
      "outputs": [
        {
          "internalType": "bytes[]",
          "name": "results",
          "type": "bytes[]"
        }
      ],
      "stateMutability": "payable",
      "type": "function"
    },
    {
      "inputs": [
        {
          "components": [
            {
              "internalType": "address",
              "name": "target",
              "type": "address"
            },
            {
              "internalType": "bytes",
              "name": "data",
              "type": "bytes"
            }
          ],
          "internalType": "struct PipeCall",
          "name": "p",
          "type": "tuple"
        },
        {
          "internalType": "uint256",
          "name": "value",
          "type": "uint256"
        }
      ],
      "name": "etherPipe",
      "outputs": [
        {
          "internalType": "bytes",
          "name": "result",
          "type": "bytes"
        }
      ],
      "stateMutability": "payable",
      "type": "function"
    },
    {
      "inputs": [
        {
          "components": [
            {
              "internalType": "address",
              "name": "target",
              "type": "address"
            },
            {
              "internalType": "bytes",
              "name": "data",
              "type": "bytes"
            }
          ],
          "internalType": "struct PipeCall[]",
          "name": "pipes",
          "type": "tuple[]"
        }
      ],
      "name": "multiPipe",
      "outputs": [
        {
          "internalType": "bytes[]",
          "name": "results",
          "type": "bytes[]"
        }
      ],
      "stateMutability": "payable",
      "type": "function"
    },
    {
      "inputs": [
        {
          "components": [
            {
              "internalType": "address",
              "name": "target",
              "type": "address"
            },
            {
              "internalType": "bytes",
              "name": "data",
              "type": "bytes"
            }
          ],
          "internalType": "struct PipeCall",
          "name": "p",
          "type": "tuple"
        }
      ],
      "name": "pipe",
      "outputs": [
        {
          "internalType": "bytes",
          "name": "result",
          "type": "bytes"
        }
      ],
      "stateMutability": "payable",
      "type": "function"
    },
    {
      "inputs": [
        {
          "components": [
            {
              "internalType": "address",
              "name": "target",
              "type": "address"
            },
            {
              "internalType": "bytes",
              "name": "data",
              "type": "bytes"
            }
          ],
          "internalType": "struct PipeCall",
          "name": "p",
          "type": "tuple"
        }
      ],
      "name": "readPipe",
      "outputs": [
        {
          "internalType": "bytes",
          "name": "result",
          "type": "bytes"
        }
      ],
      "stateMutability": "view",
      "type": "function"
    }
  ],
  "bytecode": {
    "object": "0x608060405234801561001057600080fd5b50610a93806100206000396000f3fe60806040526004361061005a5760003560e01c8063b452c7ae11610043578063b452c7ae1461009b578063cabec62b146100bb578063dd756c4f146100ce5761005a565b806308e1a0ab1461005f5780636e47d07b14610088575b600080fd5b61007261006d3660046106bd565b6100ee565b60405161007f9190610959565b60405180910390f35b6100726100963660046106f0565b610184565b6100ae6100a93660046105ba565b61021d565b60405161007f91906107da565b6100ae6100c9366004610604565b6102b9565b3480156100da57600080fd5b506100726100e93660046106bd565b61034b565b6040516308e1a0ab60e01b815260609073b1be0000bfdcddc92a8290202830c4ef689dceaa906308e1a0ab9061012890859060040161096c565b600060405180830381600087803b15801561014257600080fd5b505af1158015610156573d6000803e3d6000fd5b505050506040513d6000823e601f3d908101601f1916820160405261017e9190810190610644565b92915050565b6040516308e1a0ab60e01b815260609073b1be0000bfdcddc92a8290202830c4ef689dceaa906308e1a0ab9084906101c090879060040161096c565b6000604051808303818588803b1580156101d957600080fd5b505af11580156101ed573d6000803e3d6000fd5b50505050506040513d6000823e601f3d908101601f191682016040526102169190810190610644565b9392505050565b604051630e0506af60e11b815260609073b1be0000bfdcddc92a8290202830c4ef689dceaa90631c0a0d5e90849061025b908890889060040161083a565b6000604051808303818588803b15801561027457600080fd5b505af1158015610288573d6000803e3d6000fd5b50505050506040513d6000823e601f3d908101601f191682016040526102b19190810190610521565b949350505050565b60405163cabec62b60e01b815260609073b1be0000bfdcddc92a8290202830c4ef689dceaa9063cabec62b906102f590869086906004016108eb565b600060405180830381600087803b15801561030f57600080fd5b505af1158015610323573d6000803e3d6000fd5b505050506040513d6000823e601f3d908101601f191682016040526102169190810190610521565b6060600061035c6020840184610507565b6001600160a01b0316610372602085018561097f565b6040516103809291906107ca565b600060405180830381855afa9150503d80600081146103bb576040519150601f19603f3d011682016040523d82523d6000602084013e6103c0565b606091505b50925090506103cf81836103d5565b50919050565b81610425576044815110156103e957600080fd5b600481019050808060200190518101906104039190610677565b60405162461bcd60e51b815260040161041c9190610959565b60405180910390fd5b5050565b600067ffffffffffffffff83111561043d57fe5b610450601f8401601f19166020016109c4565b905082815283838301111561046457600080fd5b610216836020830184610a2d565b80356001600160a01b038116811461048957600080fd5b919050565b60008083601f84011261049f578182fd5b50813567ffffffffffffffff8111156104b6578182fd5b60208301915083602080830285010111156104d057600080fd5b9250929050565b600082601f8301126104e7578081fd5b61021683835160208501610429565b6000604082840312156103cf578081fd5b600060208284031215610518578081fd5b61021682610472565b60006020808385031215610533578182fd5b825167ffffffffffffffff8082111561054a578384fd5b818501915085601f83011261055d578384fd5b81518181111561056957fe5b61057684858302016109c4565b8181528481019250838501865b838110156105ac5761059a8a8884518901016104d7565b85529386019390860190600101610583565b509098975050505050505050565b6000806000604084860312156105ce578182fd5b833567ffffffffffffffff8111156105e4578283fd5b6105f08682870161048e565b909790965060209590950135949350505050565b60008060208385031215610616578182fd5b823567ffffffffffffffff81111561062c578283fd5b6106388582860161048e565b90969095509350505050565b600060208284031215610655578081fd5b815167ffffffffffffffff81111561066b578182fd5b6102b1848285016104d7565b600060208284031215610688578081fd5b815167ffffffffffffffff81111561069e578182fd5b8201601f810184136106ae578182fd5b6102b184825160208401610429565b6000602082840312156106ce578081fd5b813567ffffffffffffffff8111156106e4578182fd5b6102b1848285016104f6565b60008060408385031215610702578182fd5b823567ffffffffffffffff811115610718578283fd5b610724858286016104f6565b95602094909401359450505050565b60008284528282602086013780602084860101526020601f19601f85011685010190509392505050565b60008151808452610775816020860160208601610a2d565b601f01601f19169290920160200192915050565b60006001600160a01b0361079c83610472565b1683526107ac60208301836109e8565b604060208601526107c1604086018284610733565b95945050505050565b6000828483379101908152919050565b6000602080830181845280855180835260408601915060408482028701019250838701855b8281101561082d57603f1988860301845261081b85835161075d565b945092850192908501906001016107ff565b5092979650505050505050565b602080825281810183905260009060408084018583028501820187855b888110156105ac57878303603f190184528135368b9003605e1901811261087c578788fd5b8a0160606001600160a01b0361089183610472565b1685526108a0888301836109e8565b828a8801526108b28388018284610733565b925050506108c2878301836109e8565b9250858203888701526108d6828483610733565b96890196955050509186019150600101610857565b602080825281810183905260009060408482028401810190840186845b8781101561094c57868403603f190183528135368a9003603e1901811261092d578687fd5b610939858b8301610789565b9450509184019190840190600101610908565b5091979650505050505050565b600060208252610216602083018461075d565b6000602082526102166020830184610789565b6000808335601e19843603018112610995578283fd5b83018035915067ffffffffffffffff8211156109af578283fd5b6020019150368190038213156104d057600080fd5b60405181810167ffffffffffffffff811182821017156109e057fe5b604052919050565b6000808335601e198436030181126109fe578283fd5b830160208101925035905067ffffffffffffffff811115610a1e57600080fd5b8036038313156104d057600080fd5b60005b83811015610a48578181015183820152602001610a30565b83811115610a57576000848401525b5050505056fea2646970667358221220f1b3fe9b7a58f806a784ffe60372603fa0433beaad0bcdb71213278c12234f0b64736f6c63430007060033",
    "linkReferences": {}
  },
  "methodIdentifiers": {
    "advancedPipe((address,bytes,bytes)[],uint256)": "b452c7ae",
    "etherPipe((address,bytes),uint256)": "6e47d07b",
    "multiPipe((address,bytes)[])": "cabec62b",
    "pipe((address,bytes))": "08e1a0ab",
    "readPipe((address,bytes))": "dd756c4f"
  },
  "id": 2
}