{
  "abi": [
    {
      "inputs": [],
      "name": "getAccount",
      "outputs": [
        {
          "internalType": "address",
          "name": "_account",
          "type": "address"
        }
      ],
      "stateMutability": "view",
      "type": "function"
    },
    {
      "inputs": [
        {
          "internalType": "address",
          "name": "_account",
          "type": "address"
        }
      ],
      "name": "setAccount",
      "outputs": [],
      "stateMutability": "nonpayable",
      "type": "function"
    }
  ],
  "bytecode": {
    "object": "0x608060405234801561001057600080fd5b50610121806100206000396000f3fe6080604052348015600f57600080fd5b506004361060325760003560e01c806329f6d57c146037578063db613e81146048575b600080fd5b6046604236600460ab565b6062565b005b604e609c565b6040516059919060d7565b60405180910390f35b600080547fffffffffffffffffffffffff0000000000000000000000000000000000000000166001600160a01b0392909216919091179055565b6000546001600160a01b031690565b60006020828403121560bb578081fd5b81356001600160a01b038116811460d0578182fd5b9392505050565b6001600160a01b039190911681526020019056fea2646970667358221220133982317138fb32ae7c5c33cffe0a9b27d9de0584cbf88e190984c147ae836864736f6c63430007060033",
    "linkReferences": {}
  },
  "methodIdentifiers": {
    "getAccount()": "db613e81",
    "setAccount(address)": "29f6d57c"
  },
  "id": 8
}