{
  "abi": [
    {
      "inputs": [
        {
          "components": [
            {
              "internalType": "address",
              "name": "target",
              "type": "address"
            },
            {
              "internalType": "bytes",
              "name": "callData",
              "type": "bytes"
            },
            {
              "internalType": "bytes",
              "name": "clipboard",
              "type": "bytes"
            }
          ],
          "internalType": "struct AdvancedPipeCall[]",
          "name": "pipes",
          "type": "tuple[]"
        }
      ],
      "name": "advancedPipe",
      "outputs": [
        {
          "internalType": "bytes[]",
          "name": "results",
          "type": "bytes[]"
        }
      ],
      "stateMutability": "payable",
      "type": "function"
    },
    {
      "inputs": [
        {
          "components": [
            {
              "internalType": "address",
              "name": "target",
              "type": "address"
            },
            {
              "internalType": "bytes",
              "name": "data",
              "type": "bytes"
            }
          ],
          "internalType": "struct PipeCall[]",
          "name": "pipes",
          "type": "tuple[]"
        }
      ],
      "name": "multiPipe",
      "outputs": [
        {
          "internalType": "bytes[]",
          "name": "results",
          "type": "bytes[]"
        }
      ],
      "stateMutability": "payable",
      "type": "function"
    },
    {
      "inputs": [
        {
          "internalType": "address",
          "name": "",
          "type": "address"
        },
        {
          "internalType": "address",
          "name": "",
          "type": "address"
        },
        {
          "internalType": "uint256[]",
          "name": "",
          "type": "uint256[]"
        },
        {
          "internalType": "uint256[]",
          "name": "",
          "type": "uint256[]"
        },
        {
          "internalType": "bytes",
          "name": "",
          "type": "bytes"
        }
      ],
      "name": "onERC1155BatchReceived",
      "outputs": [
        {
          "internalType": "bytes4",
          "name": "",
          "type": "bytes4"
        }
      ],
      "stateMutability": "nonpayable",
      "type": "function"
    },
    {
      "inputs": [
        {
          "internalType": "address",
          "name": "",
          "type": "address"
        },
        {
          "internalType": "address",
          "name": "",
          "type": "address"
        },
        {
          "internalType": "uint256",
          "name": "",
          "type": "uint256"
        },
        {
          "internalType": "uint256",
          "name": "",
          "type": "uint256"
        },
        {
          "internalType": "bytes",
          "name": "",
          "type": "bytes"
        }
      ],
      "name": "onERC1155Received",
      "outputs": [
        {
          "internalType": "bytes4",
          "name": "",
          "type": "bytes4"
        }
      ],
      "stateMutability": "nonpayable",
      "type": "function"
    },
    {
      "inputs": [
        {
          "internalType": "address",
          "name": "",
          "type": "address"
        },
        {
          "internalType": "address",
          "name": "",
          "type": "address"
        },
        {
          "internalType": "uint256",
          "name": "",
          "type": "uint256"
        },
        {
          "internalType": "bytes",
          "name": "",
          "type": "bytes"
        }
      ],
      "name": "onERC721Received",
      "outputs": [
        {
          "internalType": "bytes4",
          "name": "",
          "type": "bytes4"
        }
      ],
      "stateMutability": "nonpayable",
      "type": "function"
    },
    {
      "inputs": [
        {
          "components": [
            {
              "internalType": "address",
              "name": "target",
              "type": "address"
            },
            {
              "internalType": "bytes",
              "name": "data",
              "type": "bytes"
            }
          ],
          "internalType": "struct PipeCall",
          "name": "p",
          "type": "tuple"
        }
      ],
      "name": "pipe",
      "outputs": [
        {
          "internalType": "bytes",
          "name": "result",
          "type": "bytes"
        }
      ],
      "stateMutability": "payable",
      "type": "function"
    },
    {
      "inputs": [
        {
          "internalType": "bytes4",
          "name": "interfaceId",
          "type": "bytes4"
        }
      ],
      "name": "supportsInterface",
      "outputs": [
        {
          "internalType": "bool",
          "name": "",
          "type": "bool"
        }
      ],
      "stateMutability": "view",
      "type": "function"
    }
  ],
  "bytecode": {
    "object": "0x608060405234801561001057600080fd5b506100216301ffc9a760e01b610036565b610031630271189760e51b610036565b6100ba565b6001600160e01b03198082161415610095576040805162461bcd60e51b815260206004820152601c60248201527f4552433136353a20696e76616c696420696e7465726661636520696400000000604482015290519081900360640190fd5b6001600160e01b0319166000908152602081905260409020805460ff19166001179055565b610e4e806100c96000396000f3fe6080604052600436106100705760003560e01c80631c0a0d5e1161004e5780631c0a0d5e146100f8578063bc197c8114610118578063cabec62b14610138578063f23a6e611461014b57610070565b806301ffc9a71461007557806308e1a0ab146100ab578063150b7a02146100cb575b600080fd5b34801561008157600080fd5b50610095610090366004610a67565b61016b565b6040516100a29190610c85565b60405180910390f35b6100be6100b9366004610af9565b61018e565b6040516100a29190610ca5565b3480156100d757600080fd5b506100eb6100e6366004610946565b6101b9565b6040516100a29190610c90565b61010b610106366004610a0f565b6101c9565b6040516100a29190610c25565b34801561012457600080fd5b506100eb6101333660046108a0565b610271565b61010b610146366004610a0f565b610282565b34801561015757600080fd5b506100eb6101663660046109ac565b61035e565b6001600160e01b0319811660009081526020819052604090205460ff165b919050565b60606101b36101a0602084018461087f565b6101ad6020850185610d15565b3461036f565b92915050565b630a85bd0160e11b949350505050565b60608167ffffffffffffffff811180156101e257600080fd5b5060405190808252806020026020018201604052801561021657816020015b60608152602001906001900390816102015790505b50905060005b8281101561026a5761024b84848381811061023357fe5b90506020028101906102459190610d5a565b836103f5565b82828151811061025757fe5b602090810291909101015260010161021c565b5092915050565b63bc197c8160e01b95945050505050565b60608167ffffffffffffffff8111801561029b57600080fd5b506040519080825280602002602001820160405280156102cf57816020015b60608152602001906001900390816102ba5790505b50905060005b8281101561026a5761033f8484838181106102ec57fe5b90506020028101906102fe9190610d6f565b61030c90602081019061087f565b85858481811061031857fe5b905060200281019061032a9190610d6f565b610338906020810190610d15565b600061036f565b82828151811061034b57fe5b60209081029190910101526001016102d5565b63f23a6e6160e01b95945050505050565b606060008573ffffffffffffffffffffffffffffffffffffffff1683868660405161039b929190610bf9565b60006040518083038185875af1925050503d80600081146103d8576040519150601f19603f3d011682016040523d82523d6000602084013e6103dd565b606091505b50925090506103ec81836104ac565b50949350505050565b6060600061040e6104096040860186610d15565b610500565b905061041d6040850185610d15565b600081811061042857fe5b909101356001600160f81b031916151590506104685761046161044e602086018661087f565b61045b6020870187610d15565b8461036f565b915061026a565b61048b6104786020860186610d15565b6104856040880188610d15565b87610537565b91506104a461049d602086018661087f565b838361067a565b949350505050565b816104fc576044815110156104c057600080fd5b600481019050808060200190518101906104da9190610a8f565b60405162461bcd60e51b81526004016104f39190610ca5565b60405180910390fd5b5050565b60008282600181811061050f57fe5b909101356001600160f81b0319161515905061052d575060006101b3565b5001601f19013590565b606060008484600081811061054857fe5b909101356001600160f81b031916915050600160f81b8114156105c057600061057385870187610a4f565b90506105b888888080601f0160208091040260200160405190810160405280939291908181526020018383808284376000920191909152508892508591506106fd9050565b925050610670565b600160f91b6001600160f81b0319821614156106585760006105e485870187610b31565b91505087878080601f01602080910402602001604051908101604052809392919081815260200183838082843760009201829052509396505050505b815181101561065157610647848684848151811061063a57fe5b60200260200101516106fd565b9350600101610620565b5050610670565b60405162461bcd60e51b81526004016104f390610cb8565b5095945050505050565b606060008473ffffffffffffffffffffffffffffffffffffffff1683856040516106a49190610c09565b60006040518083038185875af1925050503d80600081146106e1576040519150601f19603f3d011682016040523d82523d6000602084013e6106e6565b606091505b50925090506106f581836104ac565b509392505050565b606060008360b0601085901b901c60001c8151811061071857fe5b60209081029190910101519050610744818669ffffffffffffffffffff605087901c811690871661074d565b95945050505050565b9201519181019190915290565b803573ffffffffffffffffffffffffffffffffffffffff8116811461018957600080fd5b60008083601f84011261078f578182fd5b50813567ffffffffffffffff8111156107a6578182fd5b60208301915083602080830285010111156107c057600080fd5b9250929050565b600082601f8301126107d7578081fd5b813560206107ec6107e783610da8565b610d84565b8281528181019085830183850287018401881015610808578586fd5b855b858110156108265781358452928401929084019060010161080a565b5090979650505050505050565b600082601f830112610843578081fd5b81356108516107e782610dc6565b818152846020838601011115610865578283fd5b816020850160208301379081016020019190915292915050565b600060208284031215610890578081fd5b6108998261075a565b9392505050565b600080600080600060a086880312156108b7578081fd5b6108c08661075a565b94506108ce6020870161075a565b9350604086013567ffffffffffffffff808211156108ea578283fd5b6108f689838a016107c7565b9450606088013591508082111561090b578283fd5b61091789838a016107c7565b9350608088013591508082111561092c578283fd5b5061093988828901610833565b9150509295509295909350565b6000806000806080858703121561095b578384fd5b6109648561075a565b93506109726020860161075a565b925060408501359150606085013567ffffffffffffffff811115610994578182fd5b6109a087828801610833565b91505092959194509250565b600080600080600060a086880312156109c3578081fd5b6109cc8661075a565b94506109da6020870161075a565b93506040860135925060608601359150608086013567ffffffffffffffff811115610a03578182fd5b61093988828901610833565b60008060208385031215610a21578182fd5b823567ffffffffffffffff811115610a37578283fd5b610a438582860161077e565b90969095509350505050565b600060208284031215610a60578081fd5b5035919050565b600060208284031215610a78578081fd5b81356001600160e01b031981168114610899578182fd5b600060208284031215610aa0578081fd5b815167ffffffffffffffff811115610ab6578182fd5b8201601f81018413610ac6578182fd5b8051610ad46107e782610dc6565b818152856020838501011115610ae8578384fd5b610744826020830160208601610de8565b600060208284031215610b0a578081fd5b813567ffffffffffffffff811115610b20578182fd5b820160408185031215610899578182fd5b60008060408385031215610b43578182fd5b8235915060208084013567ffffffffffffffff811115610b61578283fd5b8401601f81018613610b71578283fd5b8035610b7f6107e782610da8565b81815283810190838501858402850186018a1015610b9b578687fd5b8694505b83851015610bbd578035835260019490940193918501918501610b9f565b5080955050505050509250929050565b60008151808452610be5816020860160208601610de8565b601f01601f19169290920160200192915050565b6000828483379101908152919050565b60008251610c1b818460208701610de8565b9190910192915050565b6000602080830181845280855180835260408601915060408482028701019250838701855b82811015610c7857603f19888603018452610c66858351610bcd565b94509285019290850190600101610c4a565b5092979650505050505050565b901515815260200190565b6001600160e01b031991909116815260200190565b6000602082526108996020830184610bcd565b60208082526025908201527f46756e6374696f6e3a20416476616e6365642054797065206e6f74207375707060408201527f6f72746564000000000000000000000000000000000000000000000000000000606082015260800190565b6000808335601e19843603018112610d2b578283fd5b83018035915067ffffffffffffffff821115610d45578283fd5b6020019150368190038213156107c057600080fd5b60008235605e19833603018112610c1b578182fd5b60008235603e19833603018112610c1b578182fd5b60405181810167ffffffffffffffff81118282101715610da057fe5b604052919050565b600067ffffffffffffffff821115610dbc57fe5b5060209081020190565b600067ffffffffffffffff821115610dda57fe5b50601f01601f191660200190565b60005b83811015610e03578181015183820152602001610deb565b83811115610e12576000848401525b5050505056fea2646970667358221220f0336e9cb7c13b70bb9af7ca5f5aa648f2201916f580d505ce490a00e482c32d64736f6c63430007060033",
    "linkReferences": {}
  },
  "methodIdentifiers": {
    "advancedPipe((address,bytes,bytes)[])": "1c0a0d5e",
    "multiPipe((address,bytes)[])": "cabec62b",
    "onERC1155BatchReceived(address,address,uint256[],uint256[],bytes)": "bc197c81",
    "onERC1155Received(address,address,uint256,uint256,bytes)": "f23a6e61",
    "onERC721Received(address,address,uint256,bytes)": "150b7a02",
    "pipe((address,bytes))": "08e1a0ab",
    "supportsInterface(bytes4)": "01ffc9a7"
  },
  "id": 1
}