{
  "abi": [
    {
      "inputs": [],
      "stateMutability": "nonpayable",
      "type": "constructor"
    },
    {
      "anonymous": false,
      "inputs": [
        {
          "indexed": true,
          "internalType": "address",
          "name": "owner",
          "type": "address"
        },
        {
          "indexed": true,
          "internalType": "address",
          "name": "approved",
          "type": "address"
        },
        {
          "indexed": true,
          "internalType": "uint256",
          "name": "tokenId",
          "type": "uint256"
        }
      ],
      "name": "Approval",
      "type": "event"
    },
    {
      "anonymous": false,
      "inputs": [
        {
          "indexed": true,
          "internalType": "address",
          "name": "owner",
          "type": "address"
        },
        {
          "indexed": true,
          "internalType": "address",
          "name": "operator",
          "type": "address"
        },
        {
          "indexed": false,
          "internalType": "bool",
          "name": "approved",
          "type": "bool"
        }
      ],
      "name": "ApprovalForAll",
      "type": "event"
    },
    {
      "anonymous": false,
      "inputs": [
        {
          "indexed": true,
          "internalType": "address",
          "name": "from",
          "type": "address"
        },
        {
          "indexed": true,
          "internalType": "address",
          "name": "to",
          "type": "address"
        },
        {
          "indexed": true,
          "internalType": "uint256",
          "name": "tokenId",
          "type": "uint256"
        }
      ],
      "name": "Transfer",
      "type": "event"
    },
    {
      "inputs": [
        {
          "internalType": "address",
          "name": "to",
          "type": "address"
        },
        {
          "internalType": "uint256",
          "name": "tokenId",
          "type": "uint256"
        }
      ],
      "name": "approve",
      "outputs": [],
      "stateMutability": "nonpayable",
      "type": "function"
    },
    {
      "inputs": [
        {
          "internalType": "address",
          "name": "owner",
          "type": "address"
        }
      ],
      "name": "balanceOf",
      "outputs": [
        {
          "internalType": "uint256",
          "name": "",
          "type": "uint256"
        }
      ],
      "stateMutability": "view",
      "type": "function"
    },
    {
      "inputs": [],
      "name": "baseURI",
      "outputs": [
        {
          "internalType": "string",
          "name": "",
          "type": "string"
        }
      ],
      "stateMutability": "view",
      "type": "function"
    },
    {
      "inputs": [
        {
          "internalType": "uint256",
          "name": "tokenId",
          "type": "uint256"
        }
      ],
      "name": "getApproved",
      "outputs": [
        {
          "internalType": "address",
          "name": "",
          "type": "address"
        }
      ],
      "stateMutability": "view",
      "type": "function"
    },
    {
      "inputs": [
        {
          "internalType": "address",
          "name": "owner",
          "type": "address"
        },
        {
          "internalType": "address",
          "name": "operator",
          "type": "address"
        }
      ],
      "name": "isApprovedForAll",
      "outputs": [
        {
          "internalType": "bool",
          "name": "",
          "type": "bool"
        }
      ],
      "stateMutability": "view",
      "type": "function"
    },
    {
      "inputs": [
        {
          "internalType": "address",
          "name": "account",
          "type": "address"
        },
        {
          "internalType": "uint256",
          "name": "id",
          "type": "uint256"
        }
      ],
      "name": "mockMint",
      "outputs": [],
      "stateMutability": "nonpayable",
      "type": "function"
    },
    {
      "inputs": [],
      "name": "name",
      "outputs": [
        {
          "internalType": "string",
          "name": "",
          "type": "string"
        }
      ],
      "stateMutability": "view",
      "type": "function"
    },
    {
      "inputs": [
        {
          "internalType": "uint256",
          "name": "tokenId",
          "type": "uint256"
        }
      ],
      "name": "ownerOf",
      "outputs": [
        {
          "internalType": "address",
          "name": "",
          "type": "address"
        }
      ],
      "stateMutability": "view",
      "type": "function"
    },
    {
      "inputs": [
        {
          "internalType": "address",
          "name": "spender",
          "type": "address"
        },
        {
          "internalType": "uint256",
          "name": "tokenId",
          "type": "uint256"
        },
        {
          "internalType": "uint256",
          "name": "deadline",
          "type": "uint256"
        },
        {
          "internalType": "bytes",
          "name": "signature",
          "type": "bytes"
        }
      ],
      "name": "permit",
      "outputs": [],
      "stateMutability": "nonpayable",
      "type": "function"
    },
    {
      "inputs": [
        {
          "internalType": "address",
          "name": "from",
          "type": "address"
        },
        {
          "internalType": "address",
          "name": "to",
          "type": "address"
        },
        {
          "internalType": "uint256",
          "name": "tokenId",
          "type": "uint256"
        }
      ],
      "name": "safeTransferFrom",
      "outputs": [],
      "stateMutability": "nonpayable",
      "type": "function"
    },
    {
      "inputs": [
        {
          "internalType": "address",
          "name": "from",
          "type": "address"
        },
        {
          "internalType": "address",
          "name": "to",
          "type": "address"
        },
        {
          "internalType": "uint256",
          "name": "tokenId",
          "type": "uint256"
        },
        {
          "internalType": "bytes",
          "name": "_data",
          "type": "bytes"
        }
      ],
      "name": "safeTransferFrom",
      "outputs": [],
      "stateMutability": "nonpayable",
      "type": "function"
    },
    {
      "inputs": [
        {
          "internalType": "address",
          "name": "operator",
          "type": "address"
        },
        {
          "internalType": "bool",
          "name": "approved",
          "type": "bool"
        }
      ],
      "name": "setApprovalForAll",
      "outputs": [],
      "stateMutability": "nonpayable",
      "type": "function"
    },
    {
      "inputs": [
        {
          "internalType": "bytes4",
          "name": "interfaceId",
          "type": "bytes4"
        }
      ],
      "name": "supportsInterface",
      "outputs": [
        {
          "internalType": "bool",
          "name": "",
          "type": "bool"
        }
      ],
      "stateMutability": "view",
      "type": "function"
    },
    {
      "inputs": [],
      "name": "symbol",
      "outputs": [
        {
          "internalType": "string",
          "name": "",
          "type": "string"
        }
      ],
      "stateMutability": "view",
      "type": "function"
    },
    {
      "inputs": [
        {
          "internalType": "uint256",
          "name": "index",
          "type": "uint256"
        }
      ],
      "name": "tokenByIndex",
      "outputs": [
        {
          "internalType": "uint256",
          "name": "",
          "type": "uint256"
        }
      ],
      "stateMutability": "view",
      "type": "function"
    },
    {
      "inputs": [
        {
          "internalType": "address",
          "name": "owner",
          "type": "address"
        },
        {
          "internalType": "uint256",
          "name": "index",
          "type": "uint256"
        }
      ],
      "name": "tokenOfOwnerByIndex",
      "outputs": [
        {
          "internalType": "uint256",
          "name": "",
          "type": "uint256"
        }
      ],
      "stateMutability": "view",
      "type": "function"
    },
    {
      "inputs": [
        {
          "internalType": "uint256",
          "name": "tokenId",
          "type": "uint256"
        }
      ],
      "name": "tokenURI",
      "outputs": [
        {
          "internalType": "string",
          "name": "",
          "type": "string"
        }
      ],
      "stateMutability": "view",
      "type": "function"
    },
    {
      "inputs": [],
      "name": "totalSupply",
      "outputs": [
        {
          "internalType": "uint256",
          "name": "",
          "type": "uint256"
        }
      ],
      "stateMutability": "view",
      "type": "function"
    },
    {
      "inputs": [
        {
          "internalType": "address",
          "name": "from",
          "type": "address"
        },
        {
          "internalType": "address",
          "name": "to",
          "type": "address"
        },
        {
          "internalType": "uint256",
          "name": "tokenId",
          "type": "uint256"
        }
      ],
      "name": "transferFrom",
      "outputs": [],
      "stateMutability": "nonpayable",
      "type": "function"
    }
  ],
  "bytecode": {
    "object": "0x60806040523480156200001157600080fd5b50604051806040016040528060048152602001634d6f636b60e01b815250604051806040016040528060048152602001634d4f434b60e01b815250620000646301ffc9a760e01b620000ce60201b60201c565b81516200007990600690602085019062000153565b5080516200008f90600790602084019062000153565b50620000a26380ac58cd60e01b620000ce565b620000b4635b5e139f60e01b620000ce565b620000c663780e9d6360e01b620000ce565b5050620001ff565b6001600160e01b031980821614156200012e576040805162461bcd60e51b815260206004820152601c60248201527f4552433136353a20696e76616c696420696e7465726661636520696400000000604482015290519081900360640190fd5b6001600160e01b0319166000908152602081905260409020805460ff19166001179055565b828054600181600116156101000203166002900490600052602060002090601f0160209004810192826200018b5760008555620001d6565b82601f10620001a657805160ff1916838001178555620001d6565b82800160010185558215620001d6579182015b82811115620001d6578251825591602001919060010190620001b9565b50620001e4929150620001e8565b5090565b5b80821115620001e45760008155600101620001e9565b611c4b806200020f6000396000f3fe608060405234801561001057600080fd5b50600436106101515760003560e01c80634f6ccce7116100cd57806395d89b4111610081578063b88d4fde11610066578063b88d4fde14610299578063c87b56dd146102ac578063e985e9c5146102bf57610151565b806395d89b411461027e578063a22cb4651461028657610151565b80636c0360eb116100b25780636c0360eb1461025057806370a0823114610258578063745a41bc1461026b57610151565b80634f6ccce71461022a5780636352211e1461023d57610151565b806318160ddd116101245780632f745c59116101095780632f745c59146101f1578063378934b41461020457806342842e0e1461021757610151565b806318160ddd146101c957806323b872dd146101de57610151565b806301ffc9a71461015657806306fdde031461017f578063081812fc14610194578063095ea7b3146101b4575b600080fd5b610169610164366004611933565b6102d2565b6040516101769190611987565b60405180910390f35b6101876102f5565b6040516101769190611992565b6101a76101a236600461195b565b61038b565b6040516101769190611973565b6101c76101c23660046118c3565b6103ed565b005b6101d16104c3565b60405161017691906119e5565b6101c76101ec3660046117e8565b6104d4565b6101d16101ff3660046118c3565b61052b565b6101c76102123660046118c3565b610556565b6101c76102253660046117e8565b610564565b6101d161023836600461195b565b61057f565b6101a761024b36600461195b565b610595565b6101876105bd565b6101d161026636600461179c565b61061e565b6101c76102793660046118ec565b610686565b610187610696565b6101c7610294366004611889565b6106f7565b6101c76102a7366004611823565b6107fc565b6101876102ba36600461195b565b610854565b6101696102cd3660046117b6565b610ad5565b6001600160e01b0319811660009081526020819052604090205460ff165b919050565b60068054604080516020601f60026000196101006001881615020190951694909404938401819004810282018101909252828152606093909290918301828280156103815780601f1061035657610100808354040283529160200191610381565b820191906000526020600020905b81548152906001019060200180831161036457829003601f168201915b5050505050905090565b600061039682610b03565b6103d15760405162461bcd60e51b815260040180806020018281038252602c815260200180611b40602c913960400191505060405180910390fd5b506000908152600460205260409020546001600160a01b031690565b60006103f882610595565b9050806001600160a01b0316836001600160a01b0316141561044b5760405162461bcd60e51b8152600401808060200182810382526021815260200180611bc46021913960400191505060405180910390fd5b806001600160a01b031661045d610b10565b6001600160a01b031614806104795750610479816102cd610b10565b6104b45760405162461bcd60e51b8152600401808060200182810382526038815260200180611a936038913960400191505060405180910390fd5b6104be8383610b14565b505050565b60006104cf6002610b9a565b905090565b6104e56104df610b10565b82610ba5565b6105205760405162461bcd60e51b8152600401808060200182810382526031815260200180611be56031913960400191505060405180910390fd5b6104be838383610c49565b6001600160a01b038216600090815260016020526040812061054d9083610d95565b90505b92915050565b6105608282610da1565b5050565b6104be838383604051806020016040528060008152506107fc565b60008061058d600284610ecf565b509392505050565b600061055082604051806060016040528060298152602001611af56029913960029190610eeb565b60098054604080516020601f60026000196101006001881615020190951694909404938401819004810282018101909252828152606093909290918301828280156103815780601f1061035657610100808354040283529160200191610381565b60006001600160a01b0382166106655760405162461bcd60e51b815260040180806020018281038252602a815260200180611acb602a913960400191505060405180910390fd5b6001600160a01b038216600090815260016020526040902061055090610b9a565b6106908484610b14565b50505050565b60078054604080516020601f60026000196101006001881615020190951694909404938401819004810282018101909252828152606093909290918301828280156103815780601f1061035657610100808354040283529160200191610381565b6106ff610b10565b6001600160a01b0316826001600160a01b03161415610765576040805162461bcd60e51b815260206004820152601960248201527f4552433732313a20617070726f766520746f2063616c6c657200000000000000604482015290519081900360640190fd5b8060056000610772610b10565b6001600160a01b03908116825260208083019390935260409182016000908120918716808252919093529120805460ff1916921515929092179091556107b6610b10565b6001600160a01b03167f17307eab39ab6107e8899845ad3d59bd9653f200f220920489ca2b5937696c318360405180821515815260200191505060405180910390a35050565b61080d610807610b10565b83610ba5565b6108485760405162461bcd60e51b8152600401808060200182810382526031815260200180611be56031913960400191505060405180910390fd5b61069084848484610f02565b606061085f82610b03565b61089a5760405162461bcd60e51b815260040180806020018281038252602f815260200180611b95602f913960400191505060405180910390fd5b60008281526008602090815260408083208054825160026001831615610100026000190190921691909104601f81018590048502820185019093528281529290919083018282801561092d5780601f106109025761010080835404028352916020019161092d565b820191906000526020600020905b81548152906001019060200180831161091057829003601f168201915b50505050509050600061093e6105bd565b9050805160001415610952575090506102f0565b815115610a135780826040516020018083805190602001908083835b6020831061098d5780518252601f19909201916020918201910161096e565b51815160209384036101000a600019018019909216911617905285519190930192850191508083835b602083106109d55780518252601f1990920191602091820191016109b6565b6001836020036101000a03801982511681845116808217855250505050505090500192505050604051602081830303815290604052925050506102f0565b80610a1d85610f54565b6040516020018083805190602001908083835b60208310610a4f5780518252601f199092019160209182019101610a30565b51815160209384036101000a600019018019909216911617905285519190930192850191508083835b60208310610a975780518252601f199092019160209182019101610a78565b6001836020036101000a0380198251168184511680821785525050505050509050019250505060405160208183030381529060405292505050919050565b6001600160a01b03918216600090815260056020908152604080832093909416825291909152205460ff1690565b6000610550600283611047565b3390565b600081815260046020526040902080547fffffffffffffffffffffffff0000000000000000000000000000000000000000166001600160a01b0384169081179091558190610b6182610595565b6001600160a01b03167f8c5be1e5ebec7d5bd14f71427d1e84f3dd0314c0f7b2291e5b200ac8c7c3b92560405160405180910390a45050565b600061055082611053565b6000610bb082610b03565b610beb5760405162461bcd60e51b815260040180806020018281038252602c815260200180611a67602c913960400191505060405180910390fd5b6000610bf683610595565b9050806001600160a01b0316846001600160a01b03161480610c315750836001600160a01b0316610c268461038b565b6001600160a01b0316145b80610c415750610c418185610ad5565b949350505050565b826001600160a01b0316610c5c82610595565b6001600160a01b031614610ca15760405162461bcd60e51b8152600401808060200182810382526029815260200180611b6c6029913960400191505060405180910390fd5b6001600160a01b038216610ce65760405162461bcd60e51b8152600401808060200182810382526024815260200180611a436024913960400191505060405180910390fd5b610cf18383836104be565b610cfc600082610b14565b6001600160a01b0383166000908152600160205260409020610d1e9082611057565b506001600160a01b0382166000908152600160205260409020610d419082611063565b50610d4e6002828461106f565b5080826001600160a01b0316846001600160a01b03167fddf252ad1be2c89b69c2b068fc378daa952ba7f163c4a11628f55a4df523b3ef60405160405180910390a4505050565b600061054d8383611085565b6001600160a01b038216610dfc576040805162461bcd60e51b815260206004820181905260248201527f4552433732313a206d696e7420746f20746865207a65726f2061646472657373604482015290519081900360640190fd5b610e0581610b03565b15610e57576040805162461bcd60e51b815260206004820152601c60248201527f4552433732313a20746f6b656e20616c7265616479206d696e74656400000000604482015290519081900360640190fd5b610e63600083836104be565b6001600160a01b0382166000908152600160205260409020610e859082611063565b50610e926002828461106f565b5060405181906001600160a01b038416906000907fddf252ad1be2c89b69c2b068fc378daa952ba7f163c4a11628f55a4df523b3ef908290a45050565b6000808080610ede86866110e9565b9097909650945050505050565b6000610ef8848484611164565b90505b9392505050565b610f0d848484610c49565b610f198484848461122e565b6106905760405162461bcd60e51b8152600401808060200182810382526032815260200180611a116032913960400191505060405180910390fd5b606081610f7957506040805180820190915260018152600360fc1b60208201526102f0565b8160005b8115610f9157600101600a82049150610f7d565b60008167ffffffffffffffff81118015610faa57600080fd5b506040519080825280601f01601f191660200182016040528015610fd5576020820181803683370190505b50859350905060001982015b831561103e57600a840660300160f81b8282806001900393508151811061100457fe5b60200101907effffffffffffffffffffffffffffffffffffffffffffffffffffffffffffff1916908160001a905350600a84049350610fe1565b50949350505050565b600061054d83836113c0565b5490565b600061054d83836113d8565b600061054d838361149e565b6000610ef884846001600160a01b0385166114e8565b815460009082106110c75760405162461bcd60e51b81526004018080602001828103825260228152602001806119ef6022913960400191505060405180910390fd5b8260000182815481106110d657fe5b9060005260206000200154905092915050565b81546000908190831061112d5760405162461bcd60e51b8152600401808060200182810382526022815260200180611b1e6022913960400191505060405180910390fd5b600084600001848154811061113e57fe5b906000526020600020906002020190508060000154816001015492509250509250929050565b600082815260018401602052604081205482816111ff5760405162461bcd60e51b81526004018080602001828103825283818151815260200191508051906020019080838360005b838110156111c45781810151838201526020016111ac565b50505050905090810190601f1680156111f15780820380516001836020036101000a031916815260200191505b509250505060405180910390fd5b5084600001600182038154811061121257fe5b9060005260206000209060020201600101549150509392505050565b6000611242846001600160a01b031661157f565b61124e57506001610c41565b6000611386630a85bd0160e11b611263610b10565b88878760405160240180856001600160a01b03168152602001846001600160a01b0316815260200183815260200180602001828103825283818151815260200191508051906020019080838360005b838110156112ca5781810151838201526020016112b2565b50505050905090810190601f1680156112f75780820380516001836020036101000a031916815260200191505b5095505050505050604051602081830303815290604052907bffffffffffffffffffffffffffffffffffffffffffffffffffffffff19166020820180517bffffffffffffffffffffffffffffffffffffffffffffffffffffffff8381831617835250505050604051806060016040528060328152602001611a11603291396001600160a01b0388169190611585565b9050600081806020019051602081101561139f57600080fd5b50516001600160e01b031916630a85bd0160e11b1492505050949350505050565b60009081526001919091016020526040902054151590565b60008181526001830160205260408120548015611494578354600019808301919081019060009087908390811061140b57fe5b906000526020600020015490508087600001848154811061142857fe5b60009182526020808320909101929092558281526001898101909252604090209084019055865487908061145857fe5b60019003818190600052602060002001600090559055866001016000878152602001908152602001600020600090556001945050505050610550565b6000915050610550565b60006114aa83836113c0565b6114e057508154600181810184556000848152602080822090930184905584548482528286019093526040902091909155610550565b506000610550565b60008281526001840160205260408120548061154d575050604080518082018252838152602080820184815286546001818101895560008981528481209551600290930290950191825591519082015586548684528188019092529290912055610efb565b8285600001600183038154811061156057fe5b9060005260206000209060020201600101819055506000915050610efb565b3b151590565b6060610ef88484600085856115998561157f565b6115ea576040805162461bcd60e51b815260206004820152601d60248201527f416464726573733a2063616c6c20746f206e6f6e2d636f6e7472616374000000604482015290519081900360640190fd5b600080866001600160a01b031685876040518082805190602001908083835b602083106116285780518252601f199092019160209182019101611609565b6001836020036101000a03801982511681845116808217855250505050505090500191505060006040518083038185875af1925050503d806000811461168a576040519150601f19603f3d011682016040523d82523d6000602084013e61168f565b606091505b509150915061169f8282866116aa565b979650505050505050565b606083156116b9575081610efb565b8251156116c95782518084602001fd5b60405162461bcd60e51b81526020600482018181528451602484015284518593919283926044019190850190808383600083156111c45781810151838201526020016111ac565b80356001600160a01b03811681146102f057600080fd5b600082601f830112611737578081fd5b813567ffffffffffffffff8082111561174c57fe5b604051601f8301601f19168101602001828111828210171561176a57fe5b604052828152848301602001861015611781578384fd5b82602086016020830137918201602001929092529392505050565b6000602082840312156117ad578081fd5b61054d82611710565b600080604083850312156117c8578081fd5b6117d183611710565b91506117df60208401611710565b90509250929050565b6000806000606084860312156117fc578081fd5b61180584611710565b925061181360208501611710565b9150604084013590509250925092565b60008060008060808587031215611838578081fd5b61184185611710565b935061184f60208601611710565b925060408501359150606085013567ffffffffffffffff811115611871578182fd5b61187d87828801611727565b91505092959194509250565b6000806040838503121561189b578182fd5b6118a483611710565b9150602083013580151581146118b8578182fd5b809150509250929050565b600080604083850312156118d5578182fd5b6118de83611710565b946020939093013593505050565b60008060008060808587031215611901578384fd5b61190a85611710565b93506020850135925060408501359150606085013567ffffffffffffffff811115611871578182fd5b600060208284031215611944578081fd5b81356001600160e01b031981168114610efb578182fd5b60006020828403121561196c578081fd5b5035919050565b6001600160a01b0391909116815260200190565b901515815260200190565b6000602080835283518082850152825b818110156119be578581018301518582016040015282016119a2565b818111156119cf5783604083870101525b50601f01601f1916929092016040019392505050565b9081526020019056fe456e756d657261626c655365743a20696e646578206f7574206f6620626f756e64734552433732313a207472616e7366657220746f206e6f6e20455243373231526563656976657220696d706c656d656e7465724552433732313a207472616e7366657220746f20746865207a65726f20616464726573734552433732313a206f70657261746f7220717565727920666f72206e6f6e6578697374656e7420746f6b656e4552433732313a20617070726f76652063616c6c6572206973206e6f74206f776e6572206e6f7220617070726f76656420666f7220616c6c4552433732313a2062616c616e636520717565727920666f7220746865207a65726f20616464726573734552433732313a206f776e657220717565727920666f72206e6f6e6578697374656e7420746f6b656e456e756d657261626c654d61703a20696e646578206f7574206f6620626f756e64734552433732313a20617070726f76656420717565727920666f72206e6f6e6578697374656e7420746f6b656e4552433732313a207472616e73666572206f6620746f6b656e2074686174206973206e6f74206f776e4552433732314d657461646174613a2055524920717565727920666f72206e6f6e6578697374656e7420746f6b656e4552433732313a20617070726f76616c20746f2063757272656e74206f776e65724552433732313a207472616e736665722063616c6c6572206973206e6f74206f776e6572206e6f7220617070726f766564a2646970667358221220bc7b133fc64362459e0aff5d4609e9cae108365b175b4bf7a7629f28f9c1c62e64736f6c63430007060033",
    "linkReferences": {}
  },
  "methodIdentifiers": {
    "approve(address,uint256)": "095ea7b3",
    "balanceOf(address)": "70a08231",
    "baseURI()": "6c0360eb",
    "getApproved(uint256)": "081812fc",
    "isApprovedForAll(address,address)": "e985e9c5",
    "mockMint(address,uint256)": "378934b4",
    "name()": "06fdde03",
    "ownerOf(uint256)": "6352211e",
    "permit(address,uint256,uint256,bytes)": "745a41bc",
    "safeTransferFrom(address,address,uint256)": "42842e0e",
    "safeTransferFrom(address,address,uint256,bytes)": "b88d4fde",
    "setApprovalForAll(address,bool)": "a22cb465",
    "supportsInterface(bytes4)": "01ffc9a7",
    "symbol()": "95d89b41",
    "tokenByIndex(uint256)": "4f6ccce7",
    "tokenOfOwnerByIndex(address,uint256)": "2f745c59",
    "tokenURI(uint256)": "c87b56dd",
    "totalSupply()": "18160ddd",
    "transferFrom(address,address,uint256)": "23b872dd"
  },
  "id": 10
}