{
  "abi": [
    {
      "inputs": [
        {
          "internalType": "string",
          "name": "name",
          "type": "string"
        }
      ],
      "stateMutability": "nonpayable",
      "type": "constructor"
    },
    {
      "anonymous": false,
      "inputs": [
        {
          "indexed": true,
          "internalType": "address",
          "name": "account",
          "type": "address"
        },
        {
          "indexed": true,
          "internalType": "address",
          "name": "operator",
          "type": "address"
        },
        {
          "indexed": false,
          "internalType": "bool",
          "name": "approved",
          "type": "bool"
        }
      ],
      "name": "ApprovalForAll",
      "type": "event"
    },
    {
      "anonymous": false,
      "inputs": [
        {
          "indexed": true,
          "internalType": "address",
          "name": "operator",
          "type": "address"
        },
        {
          "indexed": true,
          "internalType": "address",
          "name": "from",
          "type": "address"
        },
        {
          "indexed": true,
          "internalType": "address",
          "name": "to",
          "type": "address"
        },
        {
          "indexed": false,
          "internalType": "uint256[]",
          "name": "ids",
          "type": "uint256[]"
        },
        {
          "indexed": false,
          "internalType": "uint256[]",
          "name": "values",
          "type": "uint256[]"
        }
      ],
      "name": "TransferBatch",
      "type": "event"
    },
    {
      "anonymous": false,
      "inputs": [
        {
          "indexed": true,
          "internalType": "address",
          "name": "operator",
          "type": "address"
        },
        {
          "indexed": true,
          "internalType": "address",
          "name": "from",
          "type": "address"
        },
        {
          "indexed": true,
          "internalType": "address",
          "name": "to",
          "type": "address"
        },
        {
          "indexed": false,
          "internalType": "uint256",
          "name": "id",
          "type": "uint256"
        },
        {
          "indexed": false,
          "internalType": "uint256",
          "name": "value",
          "type": "uint256"
        }
      ],
      "name": "TransferSingle",
      "type": "event"
    },
    {
      "anonymous": false,
      "inputs": [
        {
          "indexed": false,
          "internalType": "string",
          "name": "value",
          "type": "string"
        },
        {
          "indexed": true,
          "internalType": "uint256",
          "name": "id",
          "type": "uint256"
        }
      ],
      "name": "URI",
      "type": "event"
    },
    {
      "inputs": [
        {
          "internalType": "address",
          "name": "account",
          "type": "address"
        },
        {
          "internalType": "uint256",
          "name": "id",
          "type": "uint256"
        }
      ],
      "name": "balanceOf",
      "outputs": [
        {
          "internalType": "uint256",
          "name": "",
          "type": "uint256"
        }
      ],
      "stateMutability": "view",
      "type": "function"
    },
    {
      "inputs": [
        {
          "internalType": "address[]",
          "name": "accounts",
          "type": "address[]"
        },
        {
          "internalType": "uint256[]",
          "name": "ids",
          "type": "uint256[]"
        }
      ],
      "name": "balanceOfBatch",
      "outputs": [
        {
          "internalType": "uint256[]",
          "name": "",
          "type": "uint256[]"
        }
      ],
      "stateMutability": "view",
      "type": "function"
    },
    {
      "inputs": [
        {
          "internalType": "address",
          "name": "account",
          "type": "address"
        },
        {
          "internalType": "address",
          "name": "operator",
          "type": "address"
        }
      ],
      "name": "isApprovedForAll",
      "outputs": [
        {
          "internalType": "bool",
          "name": "",
          "type": "bool"
        }
      ],
      "stateMutability": "view",
      "type": "function"
    },
    {
      "inputs": [
        {
          "internalType": "address",
          "name": "account",
          "type": "address"
        },
        {
          "internalType": "uint256",
          "name": "id",
          "type": "uint256"
        },
        {
          "internalType": "uint256",
          "name": "amount",
          "type": "uint256"
        }
      ],
      "name": "mockMint",
      "outputs": [],
      "stateMutability": "nonpayable",
      "type": "function"
    },
    {
      "inputs": [
        {
          "internalType": "address",
          "name": "from",
          "type": "address"
        },
        {
          "internalType": "address",
          "name": "to",
          "type": "address"
        },
        {
          "internalType": "uint256[]",
          "name": "ids",
          "type": "uint256[]"
        },
        {
          "internalType": "uint256[]",
          "name": "amounts",
          "type": "uint256[]"
        },
        {
          "internalType": "bytes",
          "name": "data",
          "type": "bytes"
        }
      ],
      "name": "safeBatchTransferFrom",
      "outputs": [],
      "stateMutability": "nonpayable",
      "type": "function"
    },
    {
      "inputs": [
        {
          "internalType": "address",
          "name": "from",
          "type": "address"
        },
        {
          "internalType": "address",
          "name": "to",
          "type": "address"
        },
        {
          "internalType": "uint256",
          "name": "id",
          "type": "uint256"
        },
        {
          "internalType": "uint256",
          "name": "amount",
          "type": "uint256"
        },
        {
          "internalType": "bytes",
          "name": "data",
          "type": "bytes"
        }
      ],
      "name": "safeTransferFrom",
      "outputs": [],
      "stateMutability": "nonpayable",
      "type": "function"
    },
    {
      "inputs": [
        {
          "internalType": "address",
          "name": "operator",
          "type": "address"
        },
        {
          "internalType": "bool",
          "name": "approved",
          "type": "bool"
        }
      ],
      "name": "setApprovalForAll",
      "outputs": [],
      "stateMutability": "nonpayable",
      "type": "function"
    },
    {
      "inputs": [
        {
          "internalType": "bytes4",
          "name": "interfaceId",
          "type": "bytes4"
        }
      ],
      "name": "supportsInterface",
      "outputs": [
        {
          "internalType": "bool",
          "name": "",
          "type": "bool"
        }
      ],
      "stateMutability": "view",
      "type": "function"
    },
    {
      "inputs": [
        {
          "internalType": "uint256",
          "name": "",
          "type": "uint256"
        }
      ],
      "name": "uri",
      "outputs": [
        {
          "internalType": "string",
          "name": "",
          "type": "string"
        }
      ],
      "stateMutability": "view",
      "type": "function"
    }
  ],
  "bytecode": {
    "object": "0x60806040523480156200001157600080fd5b50604051620019d2380380620019d28339810160408190526200003491620001c8565b80620000476301ffc9a760e01b6200007e565b620000528162000103565b62000064636cdb3d1360e11b6200007e565b620000766303a24d0760e21b6200007e565b505062000287565b6001600160e01b03198082161415620000de576040805162461bcd60e51b815260206004820152601c60248201527f4552433136353a20696e76616c696420696e7465726661636520696400000000604482015290519081900360640190fd5b6001600160e01b0319166000908152602081905260409020805460ff19166001179055565b8051620001189060039060208401906200011c565b5050565b828054600181600116156101000203166002900490600052602060002090601f0160209004810192826200015457600085556200019f565b82601f106200016f57805160ff19168380011785556200019f565b828001600101855582156200019f579182015b828111156200019f57825182559160200191906001019062000182565b50620001ad929150620001b1565b5090565b5b80821115620001ad5760008155600101620001b2565b60006020808385031215620001db578182fd5b82516001600160401b0380821115620001f2578384fd5b818501915085601f83011262000206578384fd5b8151818111156200021357fe5b604051601f8201601f19168101850183811182821017156200023157fe5b604052818152838201850188101562000248578586fd5b8592505b818310156200026b57838301850151818401860152918401916200024c565b818311156200027c57858583830101525b979650505050505050565b61173b80620002976000396000f3fe608060405234801561001057600080fd5b50600436106100a25760003560e01c806349419f3011610076578063a22cb4651161005b578063a22cb46514610158578063e985e9c51461016b578063f242432a1461017e576100a2565b806349419f30146101255780634e1273f414610138576100a2565b8062fdd58e146100a757806301ffc9a7146100d05780630e89341c146100f05780632eb2c2d614610110575b600080fd5b6100ba6100b5366004611248565b610191565b6040516100c79190611443565b60405180910390f35b6100e36100de366004611361565b610200565b6040516100c791906113e5565b6101036100fe366004611389565b610223565b6040516100c791906113f0565b61012361011e366004611105565b6102bb565b005b610123610133366004611271565b6105b4565b61014b6101463660046112a3565b6105d7565b6040516100c791906113a1565b61012361016636600461120e565b6106c3565b6100e36101793660046110d3565b6107b2565b61012361018c3660046111ab565b6107e0565b60006001600160a01b0383166101d85760405162461bcd60e51b815260040180806020018281038252602b815260200180611596602b913960400191505060405180910390fd5b5060009081526001602090815260408083206001600160a01b03949094168352929052205490565b6001600160e01b0319811660009081526020819052604090205460ff165b919050565b60038054604080516020601f60026000196101006001881615020190951694909404938401819004810282018101909252828152606093909290918301828280156102af5780601f10610284576101008083540402835291602001916102af565b820191906000526020600020905b81548152906001019060200180831161029257829003601f168201915b50505050509050919050565b81518351146102fb5760405162461bcd60e51b81526004018080602001828103825260288152602001806116bd6028913960400191505060405180910390fd5b6001600160a01b0384166103405760405162461bcd60e51b81526004018080602001828103825260258152602001806115ea6025913960400191505060405180910390fd5b6103486109ab565b6001600160a01b0316856001600160a01b0316148061036e575061036e856101796109ab565b6103a95760405162461bcd60e51b815260040180806020018281038252603281526020018061160f6032913960400191505060405180910390fd5b60006103b36109ab565b90506103c38187878787876105ac565b60005b84518110156104c45760008582815181106103dd57fe5b6020026020010151905060008583815181106103f557fe5b60200260200101519050610462816040518060600160405280602a8152602001611641602a91396001600086815260200190815260200160002060008d6001600160a01b03166001600160a01b03168152602001908152602001600020546109b09092919063ffffffff16565b60008381526001602090815260408083206001600160a01b038e811685529252808320939093558a16815220546104999082610a47565b60009283526001602081815260408086206001600160a01b038d1687529091529093205550016103c6565b50846001600160a01b0316866001600160a01b0316826001600160a01b03167f4a39dc06d4c0dbc64b70af90fd698a233a518aa5d07e595d983b8c0526c8f7fb8787604051808060200180602001838103835285818151815260200191508051906020019060200280838360005b8381101561054a578181015183820152602001610532565b50505050905001838103825284818151815260200191508051906020019060200280838360005b83811015610589578181015183820152602001610571565b5050505090500194505050505060405180910390a46105ac818787878787610aa8565b505050505050565b6040805160008152602081019091526105d290849084908490610d27565b505050565b606081518351146106195760405162461bcd60e51b81526004018080602001828103825260298152602001806116946029913960400191505060405180910390fd5b6000835167ffffffffffffffff8111801561063357600080fd5b5060405190808252806020026020018201604052801561065d578160200160208202803683370190505b50905060005b84518110156106bb5761069c85828151811061067b57fe5b602002602001015185838151811061068f57fe5b6020026020010151610191565b8282815181106106a857fe5b6020908102919091010152600101610663565b509392505050565b816001600160a01b03166106d56109ab565b6001600160a01b0316141561071b5760405162461bcd60e51b815260040180806020018281038252602981526020018061166b6029913960400191505060405180910390fd5b80600260006107286109ab565b6001600160a01b03908116825260208083019390935260409182016000908120918716808252919093529120805460ff19169215159290921790915561076c6109ab565b6001600160a01b03167f17307eab39ab6107e8899845ad3d59bd9653f200f220920489ca2b5937696c318360405180821515815260200191505060405180910390a35050565b6001600160a01b03918216600090815260026020908152604080832093909416825291909152205460ff1690565b6001600160a01b0384166108255760405162461bcd60e51b81526004018080602001828103825260258152602001806115ea6025913960400191505060405180910390fd5b61082d6109ab565b6001600160a01b0316856001600160a01b031614806108535750610853856101796109ab565b61088e5760405162461bcd60e51b81526004018080602001828103825260298152602001806115c16029913960400191505060405180910390fd5b60006108986109ab565b90506108b88187876108a988610e2f565b6108b288610e2f565b876105ac565b6108ff836040518060600160405280602a8152602001611641602a913960008781526001602090815260408083206001600160a01b038d16845290915290205491906109b0565b60008581526001602090815260408083206001600160a01b038b811685529252808320939093558716815220546109369084610a47565b60008581526001602090815260408083206001600160a01b03808b168086529184529382902094909455805188815291820187905280518a8416938616927fc3d58168c5ae7397731d063d5bbf3d657854427343f4c083240f7aacaa2d0f6292908290030190a46105ac818787878787610e74565b335b90565b60008184841115610a3f5760405162461bcd60e51b81526004018080602001828103825283818151815260200191508051906020019080838360005b83811015610a045781810151838201526020016109ec565b50505050905090810190601f168015610a315780820380516001836020036101000a031916815260200191505b509250505060405180910390fd5b505050900390565b600082820183811015610aa1576040805162461bcd60e51b815260206004820152601b60248201527f536166654d6174683a206164646974696f6e206f766572666c6f770000000000604482015290519081900360640190fd5b9392505050565b610aba846001600160a01b0316610fe5565b156105ac57836001600160a01b031663bc197c8187878686866040518663ffffffff1660e01b815260040180866001600160a01b03168152602001856001600160a01b03168152602001806020018060200180602001848103845287818151815260200191508051906020019060200280838360005b83811015610b48578181015183820152602001610b30565b50505050905001848103835286818151815260200191508051906020019060200280838360005b83811015610b87578181015183820152602001610b6f565b50505050905001848103825285818151815260200191508051906020019080838360005b83811015610bc3578181015183820152602001610bab565b50505050905090810190601f168015610bf05780820380516001836020036101000a031916815260200191505b5098505050505050505050602060405180830381600087803b158015610c1557600080fd5b505af1925050508015610c3a57506040513d6020811015610c3557600080fd5b505160015b610ccf57610c46611494565b80610c515750610c98565b60405162461bcd60e51b8152602060048201818152835160248401528351849391928392604401919085019080838360008315610a045781810151838201526020016109ec565b60405162461bcd60e51b815260040180806020018281038252603481526020018061153a6034913960400191505060405180910390fd5b6001600160e01b0319811663bc197c8160e01b14610d1e5760405162461bcd60e51b815260040180806020018281038252602881526020018061156e6028913960400191505060405180910390fd5b50505050505050565b6001600160a01b038416610d6c5760405162461bcd60e51b81526004018080602001828103825260218152602001806116e56021913960400191505060405180910390fd5b6000610d766109ab565b9050610d88816000876108a988610e2f565b60008481526001602090815260408083206001600160a01b0389168452909152902054610db59084610a47565b60008581526001602090815260408083206001600160a01b03808b16808652918452828520959095558151898152928301889052815190948616927fc3d58168c5ae7397731d063d5bbf3d657854427343f4c083240f7aacaa2d0f6292908290030190a4610e2881600087878787610e74565b5050505050565b60408051600180825281830190925260609160009190602080830190803683370190505090508281600081518110610e6357fe5b602090810291909101015292915050565b610e86846001600160a01b0316610fe5565b156105ac57836001600160a01b031663f23a6e6187878686866040518663ffffffff1660e01b815260040180866001600160a01b03168152602001856001600160a01b0316815260200184815260200183815260200180602001828103825283818151815260200191508051906020019080838360005b83811015610f15578181015183820152602001610efd565b50505050905090810190601f168015610f425780820380516001836020036101000a031916815260200191505b509650505050505050602060405180830381600087803b158015610f6557600080fd5b505af1925050508015610f8a57506040513d6020811015610f8557600080fd5b505160015b610f9657610c46611494565b6001600160e01b0319811663f23a6e6160e01b14610d1e5760405162461bcd60e51b815260040180806020018281038252602881526020018061156e6028913960400191505060405180910390fd5b3b151590565b80356001600160a01b038116811461021e57600080fd5b600082601f830112611012578081fd5b8135602061102761102283611470565b61144c565b8281528181019085830183850287018401881015611043578586fd5b855b8581101561106157813584529284019290840190600101611045565b5090979650505050505050565b600082601f83011261107e578081fd5b813567ffffffffffffffff81111561109257fe5b6110a5601f8201601f191660200161144c565b8181528460208386010111156110b9578283fd5b816020850160208301379081016020019190915292915050565b600080604083850312156110e5578182fd5b6110ee83610feb565b91506110fc60208401610feb565b90509250929050565b600080600080600060a0868803121561111c578081fd5b61112586610feb565b945061113360208701610feb565b9350604086013567ffffffffffffffff8082111561114f578283fd5b61115b89838a01611002565b94506060880135915080821115611170578283fd5b61117c89838a01611002565b93506080880135915080821115611191578283fd5b5061119e8882890161106e565b9150509295509295909350565b600080600080600060a086880312156111c2578081fd5b6111cb86610feb565b94506111d960208701610feb565b93506040860135925060608601359150608086013567ffffffffffffffff811115611202578182fd5b61119e8882890161106e565b60008060408385031215611220578182fd5b61122983610feb565b91506020830135801515811461123d578182fd5b809150509250929050565b6000806040838503121561125a578182fd5b61126383610feb565b946020939093013593505050565b600080600060608486031215611285578283fd5b61128e84610feb565b95602085013595506040909401359392505050565b600080604083850312156112b5578182fd5b823567ffffffffffffffff808211156112cc578384fd5b818501915085601f8301126112df578384fd5b813560206112ef61102283611470565b82815281810190858301838502870184018b101561130b578889fd5b8896505b848710156113345761132081610feb565b83526001969096019591830191830161130f565b509650508601359250508082111561134a578283fd5b5061135785828601611002565b9150509250929050565b600060208284031215611372578081fd5b81356001600160e01b031981168114610aa1578182fd5b60006020828403121561139a578081fd5b5035919050565b6020808252825182820181905260009190848201906040850190845b818110156113d9578351835292840192918401916001016113bd565b50909695505050505050565b901515815260200190565b6000602080835283518082850152825b8181101561141c57858101830151858201604001528201611400565b8181111561142d5783604083870101525b50601f01601f1916929092016040019392505050565b90815260200190565b60405181810167ffffffffffffffff8111828210171561146857fe5b604052919050565b600067ffffffffffffffff82111561148457fe5b5060209081020190565b60e01c90565b600060443d10156114a4576109ad565b600481823e6308c379a06114b8825161148e565b146114c2576109ad565b6040513d600319016004823e80513d67ffffffffffffffff81602484011181841117156114f257505050506109ad565b8284019250825191508082111561150c57505050506109ad565b503d83016020828401011115611524575050506109ad565b601f01601f191681016020016040529150509056fe455243313135353a207472616e7366657220746f206e6f6e2045524331313535526563656976657220696d706c656d656e746572455243313135353a204552433131353552656365697665722072656a656374656420746f6b656e73455243313135353a2062616c616e636520717565727920666f7220746865207a65726f2061646472657373455243313135353a2063616c6c6572206973206e6f74206f776e6572206e6f7220617070726f766564455243313135353a207472616e7366657220746f20746865207a65726f2061646472657373455243313135353a207472616e736665722063616c6c6572206973206e6f74206f776e6572206e6f7220617070726f766564455243313135353a20696e73756666696369656e742062616c616e636520666f72207472616e73666572455243313135353a2073657474696e6720617070726f76616c2073746174757320666f722073656c66455243313135353a206163636f756e747320616e6420696473206c656e677468206d69736d61746368455243313135353a2069647320616e6420616d6f756e7473206c656e677468206d69736d61746368455243313135353a206d696e7420746f20746865207a65726f2061646472657373a2646970667358221220948746455634d242ee89690807e2c1f6097bd3bda49fd31c628438b9d838e0c864736f6c63430007060033",
    "linkReferences": {}
  },
  "methodIdentifiers": {
    "balanceOf(address,uint256)": "00fdd58e",
    "balanceOfBatch(address[],uint256[])": "4e1273f4",
    "isApprovedForAll(address,address)": "e985e9c5",
    "mockMint(address,uint256,uint256)": "49419f30",
    "safeBatchTransferFrom(address,address,uint256[],uint256[],bytes)": "2eb2c2d6",
    "safeTransferFrom(address,address,uint256,uint256,bytes)": "f242432a",
    "setApprovalForAll(address,bool)": "a22cb465",
    "supportsInterface(bytes4)": "01ffc9a7",
    "uri(uint256)": "0e89341c"
  },
  "id": 9
}