{
  "abi": [
    {
      "inputs": [
        {
          "internalType": "uint256",
          "name": "a",
          "type": "uint256"
        },
        {
          "internalType": "uint256",
          "name": "b",
          "type": "uint256"
        }
      ],
      "name": "add",
      "outputs": [
        {
          "internalType": "uint256",
          "name": "",
          "type": "uint256"
        }
      ],
      "stateMutability": "pure",
      "type": "function"
    },
    {
      "inputs": [
        {
          "internalType": "uint256",
          "name": "a",
          "type": "uint256"
        },
        {
          "internalType": "uint256",
          "name": "b",
          "type": "uint256"
        }
      ],
      "name": "div",
      "outputs": [
        {
          "internalType": "uint256",
          "name": "",
          "type": "uint256"
        }
      ],
      "stateMutability": "pure",
      "type": "function"
    },
    {
      "inputs": [
        {
          "internalType": "contract IERC20",
          "name": "token",
          "type": "address"
        },
        {
          "internalType": "address",
          "name": "account",
          "type": "address"
        },
        {
          "internalType": "uint256",
          "name": "balanceBefore",
          "type": "uint256"
        }
      ],
      "name": "getReceivedTokens",
      "outputs": [
        {
          "internalType": "uint256",
          "name": "",
          "type": "uint256"
        }
      ],
      "stateMutability": "view",
      "type": "function"
    },
    {
      "inputs": [
        {
          "internalType": "contract IERC20",
          "name": "token",
          "type": "address"
        },
        {
          "internalType": "address",
          "name": "account",
          "type": "address"
        },
        {
          "internalType": "uint256",
          "name": "balanceBefore",
          "type": "uint256"
        }
      ],
      "name": "getSpentTokens",
      "outputs": [
        {
          "internalType": "uint256",
          "name": "",
          "type": "uint256"
        }
      ],
      "stateMutability": "view",
      "type": "function"
    },
    {
      "inputs": [
        {
          "internalType": "uint256",
          "name": "a",
          "type": "uint256"
        },
        {
          "internalType": "uint256",
          "name": "b",
          "type": "uint256"
        }
      ],
      "name": "mul",
      "outputs": [
        {
          "internalType": "uint256",
          "name": "",
          "type": "uint256"
        }
      ],
      "stateMutability": "pure",
      "type": "function"
    },
    {
      "inputs": [
        {
          "internalType": "uint256",
          "name": "a",
          "type": "uint256"
        },
        {
          "internalType": "uint256",
          "name": "b",
          "type": "uint256"
        },
        {
          "internalType": "uint256",
          "name": "denominator",
          "type": "uint256"
        }
      ],
      "name": "mulDiv",
      "outputs": [
        {
          "internalType": "uint256",
          "name": "",
          "type": "uint256"
        }
      ],
      "stateMutability": "pure",
      "type": "function"
    },
    {
      "inputs": [
        {
          "internalType": "uint256",
          "name": "a",
          "type": "uint256"
        },
        {
          "internalType": "uint256",
          "name": "b",
          "type": "uint256"
        }
      ],
      "name": "sub",
      "outputs": [
        {
          "internalType": "uint256",
          "name": "",
          "type": "uint256"
        }
      ],
      "stateMutability": "pure",
      "type": "function"
    }
  ],
  "bytecode": {
    "object": "0x608060405234801561001057600080fd5b5061049a806100206000396000f3fe608060405234801561001057600080fd5b506004361061007d5760003560e01c8063aa9a09121161005b578063aa9a0912146100cd578063b67d77c5146100e0578063bd76168f146100f3578063c8a4ac9c1461010657600080fd5b806344b757c214610082578063771602f7146100a7578063a391c15b146100ba575b600080fd5b610095610090366004610347565b610119565b60405190815260200160405180910390f35b6100956100b5366004610388565b6101a8565b6100956100c8366004610388565b6101bd565b6100956100db3660046103aa565b6101c9565b6100956100ee366004610388565b6101d6565b610095610101366004610347565b6101e2565b610095610114366004610388565b610268565b6040516370a0823160e01b815273ffffffffffffffffffffffffffffffffffffffff8381166004830152600091908516906370a0823190602401602060405180830381865afa158015610170573d6000803e3d6000fd5b505050506040513d601f19601f8201168201806040525081019061019491906103d6565b61019e9083610405565b90505b9392505050565b60006101b48284610418565b90505b92915050565b60006101b4828461042b565b600061019e848484610274565b60006101b48284610405565b6040516370a0823160e01b815273ffffffffffffffffffffffffffffffffffffffff838116600483015260009183918616906370a0823190602401602060405180830381865afa15801561023a573d6000803e3d6000fd5b505050506040513d601f19601f8201168201806040525081019061025e91906103d6565b61019e9190610405565b60006101b4828461044d565b60008080600019858709858702925082811083820303915050806000036102ad57600084116102a257600080fd5b5082900490506101a1565b8084116102b957600080fd5b60008486880960026001871981018816978890046003810283188082028403028082028403028082028403028082028403028082028403029081029092039091026000889003889004909101858311909403939093029303949094049190911702949350505050565b73ffffffffffffffffffffffffffffffffffffffff8116811461034457600080fd5b50565b60008060006060848603121561035c57600080fd5b833561036781610322565b9250602084013561037781610322565b929592945050506040919091013590565b6000806040838503121561039b57600080fd5b50508035926020909101359150565b6000806000606084860312156103bf57600080fd5b505081359360208301359350604090920135919050565b6000602082840312156103e857600080fd5b5051919050565b634e487b7160e01b600052601160045260246000fd5b818103818111156101b7576101b76103ef565b808201808211156101b7576101b76103ef565b60008261044857634e487b7160e01b600052601260045260246000fd5b500490565b80820281158282048414176101b7576101b76103ef56fea2646970667358221220654b4bd70eb023c53e78c555f6aebab22fc1dff1db7c3542d65ef082af52f79464736f6c63430008110033",
    "linkReferences": {}
  },
  "methodIdentifiers": {
    "add(uint256,uint256)": "771602f7",
    "div(uint256,uint256)": "a391c15b",
    "getReceivedTokens(address,address,uint256)": "bd76168f",
    "getSpentTokens(address,address,uint256)": "44b757c2",
    "mul(uint256,uint256)": "c8a4ac9c",
    "mulDiv(uint256,uint256,uint256)": "aa9a0912",
    "sub(uint256,uint256)": "b67d77c5"
  },
  "id": 0
}