{
  "abi": [
    {
      "inputs": [
        {
          "internalType": "contract IERC1155",
          "name": "token",
          "type": "address"
        },
        {
          "internalType": "address",
          "name": "to",
          "type": "address"
        },
        {
          "internalType": "uint256[]",
          "name": "ids",
          "type": "uint256[]"
        },
        {
          "internalType": "uint256[]",
          "name": "values",
          "type": "uint256[]"
        }
      ],
      "name": "batchTransferERC1155",
      "outputs": [],
      "stateMutability": "payable",
      "type": "function"
    },
    {
      "inputs": [
        {
          "internalType": "contract IERC20Permit",
          "name": "token",
          "type": "address"
        },
        {
          "internalType": "address",
          "name": "owner",
          "type": "address"
        },
        {
          "internalType": "address",
          "name": "spender",
          "type": "address"
        },
        {
          "internalType": "uint256",
          "name": "value",
          "type": "uint256"
        },
        {
          "internalType": "uint256",
          "name": "deadline",
          "type": "uint256"
        },
        {
          "internalType": "uint8",
          "name": "v",
          "type": "uint8"
        },
        {
          "internalType": "bytes32",
          "name": "r",
          "type": "bytes32"
        },
        {
          "internalType": "bytes32",
          "name": "s",
          "type": "bytes32"
        }
      ],
      "name": "permitERC20",
      "outputs": [],
      "stateMutability": "payable",
      "type": "function"
    },
    {
      "inputs": [
        {
          "internalType": "contract IERC4494",
          "name": "token",
          "type": "address"
        },
        {
          "internalType": "address",
          "name": "spender",
          "type": "address"
        },
        {
          "internalType": "uint256",
          "name": "tokenId",
          "type": "uint256"
        },
        {
          "internalType": "uint256",
          "name": "deadline",
          "type": "uint256"
        },
        {
          "internalType": "bytes",
          "name": "sig",
          "type": "bytes"
        }
      ],
      "name": "permitERC721",
      "outputs": [],
      "stateMutability": "payable",
      "type": "function"
    },
    {
      "inputs": [
        {
          "internalType": "contract IERC1155",
          "name": "token",
          "type": "address"
        },
        {
          "internalType": "address",
          "name": "to",
          "type": "address"
        },
        {
          "internalType": "uint256",
          "name": "id",
          "type": "uint256"
        },
        {
          "internalType": "uint256",
          "name": "value",
          "type": "uint256"
        }
      ],
      "name": "transferERC1155",
      "outputs": [],
      "stateMutability": "payable",
      "type": "function"
    },
    {
      "inputs": [
        {
          "internalType": "contract IERC721",
          "name": "token",
          "type": "address"
        },
        {
          "internalType": "address",
          "name": "to",
          "type": "address"
        },
        {
          "internalType": "uint256",
          "name": "id",
          "type": "uint256"
        }
      ],
      "name": "transferERC721",
      "outputs": [],
      "stateMutability": "payable",
      "type": "function"
    }
  ],
  "bytecode": {
    "object": "0x608060405234801561001057600080fd5b506107fc806100206000396000f3fe60806040526004361061005a5760003560e01c80634935ed43116100435780634935ed4314610087578063a9412a591461009a578063b442b398146100ad5761005a565b80630a7e880c1461005f5780631aca637614610074575b600080fd5b61007261006d3660046103f8565b6100c0565b005b610072610082366004610594565b610139565b6100726100953660046104c4565b6101a0565b6100726100a8366004610366565b61020b565b6100726100bb36600461043d565b6102a9565b60408051600081526020810191829052637921219560e11b9091526001600160a01b0385169063f242432a90610101903390879087908790602481016106f2565b600060405180830381600087803b15801561011b57600080fd5b505af115801561012f573d6000803e3d6000fd5b5050505050505050565b604051632142170760e11b81526001600160a01b038416906342842e0e90610169903390869086906004016106ce565b600060405180830381600087803b15801561018357600080fd5b505af1158015610197573d6000803e3d6000fd5b50505050505050565b604051631d16906f60e21b81526001600160a01b0386169063745a41bc906101d2908790879087908790600401610776565b600060405180830381600087803b1580156101ec57600080fd5b505af1158015610200573d6000803e3d6000fd5b505050505050505050565b6001600160a01b038616632eb2c2d633878787878760006040519080825280601f01601f19166020018201604052801561024c576020820181803683370190505b506040518863ffffffff1660e01b815260040161026f979695949392919061066c565b600060405180830381600087803b15801561028957600080fd5b505af115801561029d573d6000803e3d6000fd5b50505050505050505050565b60405163d505accf60e01b81526001600160a01b0389169063d505accf906102e1908a908a908a908a908a908a908a90600401610735565b600060405180830381600087803b1580156102fb57600080fd5b505af115801561030f573d6000803e3d6000fd5b505050505050505050505050565b60008083601f84011261032e578081fd5b50813567ffffffffffffffff811115610345578182fd5b602083019150836020808302850101111561035f57600080fd5b9250929050565b6000806000806000806080878903121561037e578182fd5b8635610389816107ae565b95506020870135610399816107ae565b9450604087013567ffffffffffffffff808211156103b5578384fd5b6103c18a838b0161031d565b909650945060608901359150808211156103d9578384fd5b506103e689828a0161031d565b979a9699509497509295939492505050565b6000806000806080858703121561040d578384fd5b8435610418816107ae565b93506020850135610428816107ae565b93969395505050506040820135916060013590565b600080600080600080600080610100898b031215610459578182fd5b8835610464816107ae565b97506020890135610474816107ae565b96506040890135610484816107ae565b9550606089013594506080890135935060a089013560ff811681146104a7578283fd5b979a969950949793969295929450505060c08201359160e0013590565b600080600080600060a086880312156104db578081fd5b85356104e6816107ae565b94506020868101356104f7816107ae565b94506040870135935060608701359250608087013567ffffffffffffffff80821115610521578384fd5b818901915089601f830112610534578384fd5b81358181111561054057fe5b604051601f8201601f191681018501838111828210171561055d57fe5b60405281815283820185018c1015610573578586fd5b81858501868301378585838301015280955050505050509295509295909350565b6000806000606084860312156105a8578283fd5b83356105b3816107ae565b925060208401356105c3816107ae565b929592945050506040919091013590565b60008284527f07ffffffffffffffffffffffffffffffffffffffffffffffffffffffffffffff831115610605578081fd5b6020830280836020870137939093016020019283525090919050565b60008151808452815b818110156106465760208185018101518683018201520161062a565b818111156106575782602083870101525b50601f01601f19169290920160200192915050565b60006001600160a01b03808a16835280891660208401525060a0604083015261069960a0830187896105d4565b82810360608401526106ac8186886105d4565b905082810360808401526106c08185610621565b9a9950505050505050505050565b6001600160a01b039384168152919092166020820152604081019190915260600190565b60006001600160a01b03808816835280871660208401525084604083015283606083015260a0608083015261072a60a0830184610621565b979650505050505050565b6001600160a01b0397881681529590961660208601526040850193909352606084019190915260ff16608083015260a082015260c081019190915260e00190565b60006001600160a01b0386168252846020830152836040830152608060608301526107a46080830184610621565b9695505050505050565b6001600160a01b03811681146107c357600080fd5b5056fea2646970667358221220b1a995f8e28444be60834546a55e7249c682da1f2de105085d6f40313f03abc164736f6c63430007060033",
    "linkReferences": {}
  },
  "methodIdentifiers": {
    "batchTransferERC1155(address,address,uint256[],uint256[])": "a9412a59",
    "permitERC20(address,address,address,uint256,uint256,uint8,bytes32,bytes32)": "b442b398",
    "permitERC721(address,address,uint256,uint256,bytes)": "4935ed43",
    "transferERC1155(address,address,uint256,uint256)": "0a7e880c",
    "transferERC721(address,address,uint256)": "1aca6376"
  },
  "id": 3
}