{
  "abi": [
    {
      "inputs": [
        {
          "internalType": "string",
          "name": "name",
          "type": "string"
        },
        {
          "internalType": "string",
          "name": "symbol",
          "type": "string"
        }
      ],
      "stateMutability": "nonpayable",
      "type": "constructor"
    },
    {
      "anonymous": false,
      "inputs": [
        {
          "indexed": true,
          "internalType": "address",
          "name": "owner",
          "type": "address"
        },
        {
          "indexed": true,
          "internalType": "address",
          "name": "spender",
          "type": "address"
        },
        {
          "indexed": false,
          "internalType": "uint256",
          "name": "value",
          "type": "uint256"
        }
      ],
      "name": "Approval",
      "type": "event"
    },
    {
      "anonymous": false,
      "inputs": [
        {
          "indexed": true,
          "internalType": "address",
          "name": "from",
          "type": "address"
        },
        {
          "indexed": true,
          "internalType": "address",
          "name": "to",
          "type": "address"
        },
        {
          "indexed": false,
          "internalType": "uint256",
          "name": "value",
          "type": "uint256"
        }
      ],
      "name": "Transfer",
      "type": "event"
    },
    {
      "inputs": [],
      "name": "DOMAIN_SEPARATOR",
      "outputs": [
        {
          "internalType": "bytes32",
          "name": "",
          "type": "bytes32"
        }
      ],
      "stateMutability": "view",
      "type": "function"
    },
    {
      "inputs": [
        {
          "internalType": "address",
          "name": "owner",
          "type": "address"
        },
        {
          "internalType": "address",
          "name": "spender",
          "type": "address"
        }
      ],
      "name": "allowance",
      "outputs": [
        {
          "internalType": "uint256",
          "name": "",
          "type": "uint256"
        }
      ],
      "stateMutability": "view",
      "type": "function"
    },
    {
      "inputs": [
        {
          "internalType": "address",
          "name": "spender",
          "type": "address"
        },
        {
          "internalType": "uint256",
          "name": "amount",
          "type": "uint256"
        }
      ],
      "name": "approve",
      "outputs": [
        {
          "internalType": "bool",
          "name": "",
          "type": "bool"
        }
      ],
      "stateMutability": "nonpayable",
      "type": "function"
    },
    {
      "inputs": [
        {
          "internalType": "address",
          "name": "account",
          "type": "address"
        }
      ],
      "name": "balanceOf",
      "outputs": [
        {
          "internalType": "uint256",
          "name": "",
          "type": "uint256"
        }
      ],
      "stateMutability": "view",
      "type": "function"
    },
    {
      "inputs": [
        {
          "internalType": "uint256",
          "name": "amount",
          "type": "uint256"
        }
      ],
      "name": "burn",
      "outputs": [],
      "stateMutability": "nonpayable",
      "type": "function"
    },
    {
      "inputs": [
        {
          "internalType": "address",
          "name": "account",
          "type": "address"
        },
        {
          "internalType": "uint256",
          "name": "amount",
          "type": "uint256"
        }
      ],
      "name": "burnFrom",
      "outputs": [],
      "stateMutability": "nonpayable",
      "type": "function"
    },
    {
      "inputs": [],
      "name": "decimals",
      "outputs": [
        {
          "internalType": "uint8",
          "name": "",
          "type": "uint8"
        }
      ],
      "stateMutability": "view",
      "type": "function"
    },
    {
      "inputs": [
        {
          "internalType": "address",
          "name": "spender",
          "type": "address"
        },
        {
          "internalType": "uint256",
          "name": "subtractedValue",
          "type": "uint256"
        }
      ],
      "name": "decreaseAllowance",
      "outputs": [
        {
          "internalType": "bool",
          "name": "",
          "type": "bool"
        }
      ],
      "stateMutability": "nonpayable",
      "type": "function"
    },
    {
      "inputs": [
        {
          "internalType": "address",
          "name": "spender",
          "type": "address"
        },
        {
          "internalType": "uint256",
          "name": "addedValue",
          "type": "uint256"
        }
      ],
      "name": "increaseAllowance",
      "outputs": [
        {
          "internalType": "bool",
          "name": "",
          "type": "bool"
        }
      ],
      "stateMutability": "nonpayable",
      "type": "function"
    },
    {
      "inputs": [
        {
          "internalType": "address",
          "name": "account",
          "type": "address"
        },
        {
          "internalType": "uint256",
          "name": "amount",
          "type": "uint256"
        }
      ],
      "name": "mint",
      "outputs": [
        {
          "internalType": "bool",
          "name": "",
          "type": "bool"
        }
      ],
      "stateMutability": "nonpayable",
      "type": "function"
    },
    {
      "inputs": [],
      "name": "name",
      "outputs": [
        {
          "internalType": "string",
          "name": "",
          "type": "string"
        }
      ],
      "stateMutability": "view",
      "type": "function"
    },
    {
      "inputs": [
        {
          "internalType": "address",
          "name": "owner",
          "type": "address"
        }
      ],
      "name": "nonces",
      "outputs": [
        {
          "internalType": "uint256",
          "name": "",
          "type": "uint256"
        }
      ],
      "stateMutability": "view",
      "type": "function"
    },
    {
      "inputs": [
        {
          "internalType": "address",
          "name": "owner",
          "type": "address"
        },
        {
          "internalType": "address",
          "name": "spender",
          "type": "address"
        },
        {
          "internalType": "uint256",
          "name": "value",
          "type": "uint256"
        },
        {
          "internalType": "uint256",
          "name": "deadline",
          "type": "uint256"
        },
        {
          "internalType": "uint8",
          "name": "v",
          "type": "uint8"
        },
        {
          "internalType": "bytes32",
          "name": "r",
          "type": "bytes32"
        },
        {
          "internalType": "bytes32",
          "name": "s",
          "type": "bytes32"
        }
      ],
      "name": "permit",
      "outputs": [],
      "stateMutability": "nonpayable",
      "type": "function"
    },
    {
      "inputs": [
        {
          "internalType": "uint8",
          "name": "dec",
          "type": "uint8"
        }
      ],
      "name": "setDecimals",
      "outputs": [],
      "stateMutability": "nonpayable",
      "type": "function"
    },
    {
      "inputs": [],
      "name": "symbol",
      "outputs": [
        {
          "internalType": "string",
          "name": "",
          "type": "string"
        }
      ],
      "stateMutability": "view",
      "type": "function"
    },
    {
      "inputs": [],
      "name": "totalSupply",
      "outputs": [
        {
          "internalType": "uint256",
          "name": "",
          "type": "uint256"
        }
      ],
      "stateMutability": "view",
      "type": "function"
    },
    {
      "inputs": [
        {
          "internalType": "address",
          "name": "recipient",
          "type": "address"
        },
        {
          "internalType": "uint256",
          "name": "amount",
          "type": "uint256"
        }
      ],
      "name": "transfer",
      "outputs": [
        {
          "internalType": "bool",
          "name": "",
          "type": "bool"
        }
      ],
      "stateMutability": "nonpayable",
      "type": "function"
    },
    {
      "inputs": [
        {
          "internalType": "address",
          "name": "sender",
          "type": "address"
        },
        {
          "internalType": "address",
          "name": "recipient",
          "type": "address"
        },
        {
          "internalType": "uint256",
          "name": "amount",
          "type": "uint256"
        }
      ],
      "name": "transferFrom",
      "outputs": [
        {
          "internalType": "bool",
          "name": "",
          "type": "bool"
        }
      ],
      "stateMutability": "nonpayable",
      "type": "function"
    }
  ],
  "bytecode": {
    "object": "0x6101206040526008805460ff191660121790553480156200001f57600080fd5b50604051620017ae380380620017ae8339810160408190526200004291620002bb565b8180604051806040016040528060018152602001603160f81b815250848481600390805190602001906200007892919062000174565b5080516200008e90600490602084019062000174565b50506005805460ff1916601217905550815160208084019190912082519183019190912060c082905260e08190527f8b73c3c69bb8fe3d512ecc4cf759cc79239f7b179b0ffacaa9a75d522b39400f620000e76200010c565b60a052620000f781848462000110565b60805261010052506200032295505050505050565b4690565b60008383836200011f6200010c565b3060405160200180868152602001858152602001848152602001838152602001826001600160a01b03168152602001955050505050506040516020818303038152906040528051906020012090509392505050565b828054600181600116156101000203166002900490600052602060002090601f016020900481019282620001ac5760008555620001f7565b82601f10620001c757805160ff1916838001178555620001f7565b82800160010185558215620001f7579182015b82811115620001f7578251825591602001919060010190620001da565b506200020592915062000209565b5090565b5b808211156200020557600081556001016200020a565b600082601f83011262000231578081fd5b81516001600160401b03808211156200024657fe5b6040516020601f8401601f19168201810183811183821017156200026657fe5b60405283825285840181018710156200027d578485fd5b8492505b83831015620002a0578583018101518284018201529182019162000281565b83831115620002b157848185840101525b5095945050505050565b60008060408385031215620002ce578182fd5b82516001600160401b0380821115620002e5578384fd5b620002f38683870162000220565b9350602085015191508082111562000309578283fd5b50620003188582860162000220565b9150509250929050565b60805160a05160c05160e0516101005161144c62000362600039806109f4525080610a36525080610a1552508061099b5250806109cb525061144c6000f3fe608060405234801561001057600080fd5b50600436106101365760003560e01c806370a08231116100b257806395d89b4111610081578063a9059cbb11610066578063a9059cbb14610260578063d505accf14610273578063dd62ed3e1461028657610136565b806395d89b4114610245578063a457c2d71461024d57610136565b806370a08231146101f957806379cc67901461020c5780637a1395aa1461021f5780637ecebe001461023257610136565b8063313ce5671161010957806339509351116100ee57806339509351146101be57806340c10f19146101d157806342966c68146101e457610136565b8063313ce567146101a15780633644e515146101b657610136565b806306fdde031461013b578063095ea7b31461015957806318160ddd1461017957806323b872dd1461018e575b600080fd5b610143610299565b604051610150919061119b565b60405180910390f35b61016c6101673660046110f8565b610330565b6040516101509190611153565b61018161034d565b604051610150919061115e565b61016c61019c366004611054565b610353565b6101a96103da565b604051610150919061125c565b6101816103e3565b61016c6101cc3660046110f8565b6103f2565b61016c6101df3660046110f8565b610440565b6101f76101f2366004611121565b61044c565b005b610181610207366004611008565b610458565b6101f761021a3660046110f8565b610477565b6101f761022d366004611139565b610485565b610181610240366004611008565b61049b565b6101436104c2565b61016c61025b3660046110f8565b610523565b61016c61026e3660046110f8565b61058b565b6101f761028136600461108f565b61059f565b610181610294366004611022565b61068a565b60038054604080516020601f60026000196101006001881615020190951694909404938401819004810282018101909252828152606093909290918301828280156103255780601f106102fa57610100808354040283529160200191610325565b820191906000526020600020905b81548152906001019060200180831161030857829003601f168201915b505050505090505b90565b600061034461033d6106b5565b84846106b9565b50600192915050565b60025490565b60006103608484846107a5565b6103d08461036c6106b5565b6103cb8560405180606001604052806028815260200161133c602891396001600160a01b038a166000908152600160205260408120906103aa6106b5565b6001600160a01b031681526020810191909152604001600020549190610900565b6106b9565b5060019392505050565b60085460ff1690565b60006103ed610997565b905090565b60006103446103ff6106b5565b846103cb85600160006104106106b5565b6001600160a01b03908116825260208083019390935260409182016000908120918c168152925290205490610a61565b60006103448383610ac2565b61045581610bb2565b50565b6001600160a01b0381166000908152602081905260409020545b919050565b6104818282610bc3565b5050565b6008805460ff191660ff92909216919091179055565b6001600160a01b03811660009081526006602052604081206104bc90610c18565b92915050565b60048054604080516020601f60026000196101006001881615020190951694909404938401819004810282018101909252828152606093909290918301828280156103255780601f106102fa57610100808354040283529160200191610325565b60006103446105306106b5565b846103cb856040518060600160405280602581526020016113f2602591396001600061055a6106b5565b6001600160a01b03908116825260208083019390935260409182016000908120918d16815292529020549190610900565b60006103446105986106b5565b84846107a5565b834211156105c85760405162461bcd60e51b81526004016105bf906111ee565b60405180910390fd5b60007f6e71edae12b1b97f4d1f60370fef10105fa2faae0126114a169c64845d6126c98888886105f78c610c1c565b8960405160200161060d96959493929190611167565b604051602081830303815290604052805190602001209050600061063082610c4e565b9050600061064082878787610c9a565b9050896001600160a01b0316816001600160a01b0316146106735760405162461bcd60e51b81526004016105bf90611225565b61067e8a8a8a6106b9565b50505050505050505050565b6001600160a01b03918216600090815260016020908152604080832093909416825291909152205490565b3390565b6001600160a01b0383166106fe5760405162461bcd60e51b81526004018080602001828103825260248152602001806113ce6024913960400191505060405180910390fd5b6001600160a01b0382166107435760405162461bcd60e51b81526004018080602001828103825260228152602001806112b06022913960400191505060405180910390fd5b6001600160a01b03808416600081815260016020908152604080832094871680845294825291829020859055815185815291517f8c5be1e5ebec7d5bd14f71427d1e84f3dd0314c0f7b2291e5b200ac8c7c3b9259281900390910190a3505050565b6001600160a01b0383166107ea5760405162461bcd60e51b81526004018080602001828103825260258152602001806113a96025913960400191505060405180910390fd5b6001600160a01b03821661082f5760405162461bcd60e51b815260040180806020018281038252602381526020018061126b6023913960400191505060405180910390fd5b61083a838383610c13565b610877816040518060600160405280602681526020016112d2602691396001600160a01b0386166000908152602081905260409020549190610900565b6001600160a01b0380851660009081526020819052604080822093909355908416815220546108a69082610a61565b6001600160a01b038084166000818152602081815260409182902094909455805185815290519193928716927fddf252ad1be2c89b69c2b068fc378daa952ba7f163c4a11628f55a4df523b3ef92918290030190a3505050565b6000818484111561098f5760405162461bcd60e51b81526004018080602001828103825283818151815260200191508051906020019080838360005b8381101561095457818101518382015260200161093c565b50505050905090810190601f1680156109815780820380516001836020036101000a031916815260200191505b509250505060405180910390fd5b505050900390565b60007f00000000000000000000000000000000000000000000000000000000000000006109c2610e18565b14156109ef57507f000000000000000000000000000000000000000000000000000000000000000061032d565b610a5a7f00000000000000000000000000000000000000000000000000000000000000007f00000000000000000000000000000000000000000000000000000000000000007f0000000000000000000000000000000000000000000000000000000000000000610e1c565b905061032d565b600082820183811015610abb576040805162461bcd60e51b815260206004820152601b60248201527f536166654d6174683a206164646974696f6e206f766572666c6f770000000000604482015290519081900360640190fd5b9392505050565b6001600160a01b038216610b1d576040805162461bcd60e51b815260206004820152601f60248201527f45524332303a206d696e7420746f20746865207a65726f206164647265737300604482015290519081900360640190fd5b610b2960008383610c13565b600254610b369082610a61565b6002556001600160a01b038216600090815260208190526040902054610b5c9082610a61565b6001600160a01b0383166000818152602081815260408083209490945583518581529351929391927fddf252ad1be2c89b69c2b068fc378daa952ba7f163c4a11628f55a4df523b3ef9281900390910190a35050565b610455610bbd6106b5565b82610e7e565b6000610bf58260405180606001604052806024815260200161136460249139610bee866102946106b5565b9190610900565b9050610c0983610c036106b5565b836106b9565b610c138383610e7e565b505050565b5490565b6001600160a01b0381166000908152600660205260408120610c3d81610c18565b9150610c4881610f7a565b50919050565b6000610c58610997565b82604051602001808061190160f01b81525060020183815260200182815260200192505050604051602081830303815290604052805190602001209050919050565b60007f7fffffffffffffffffffffffffffffff5d576e7357a4501ddfe92f46681b20a0821115610cfb5760405162461bcd60e51b81526004018080602001828103825260228152602001806112f86022913960400191505060405180910390fd5b8360ff16601b1480610d1057508360ff16601c145b610d4b5760405162461bcd60e51b815260040180806020018281038252602281526020018061131a6022913960400191505060405180910390fd5b600060018686868660405160008152602001604052604051808581526020018460ff1681526020018381526020018281526020019450505050506020604051602081039080840390855afa158015610da7573d6000803e3d6000fd5b5050604051601f1901519150506001600160a01b038116610e0f576040805162461bcd60e51b815260206004820152601860248201527f45434453413a20696e76616c6964207369676e61747572650000000000000000604482015290519081900360640190fd5b95945050505050565b4690565b6000838383610e29610e18565b3060405160200180868152602001858152602001848152602001838152602001826001600160a01b03168152602001955050505050506040516020818303038152906040528051906020012090509392505050565b6001600160a01b038216610ec35760405162461bcd60e51b81526004018080602001828103825260218152602001806113886021913960400191505060405180910390fd5b610ecf82600083610c13565b610f0c8160405180606001604052806022815260200161128e602291396001600160a01b0385166000908152602081905260409020549190610900565b6001600160a01b038316600090815260208190526040902055600254610f329082610f83565b6002556040805182815290516000916001600160a01b038516917fddf252ad1be2c89b69c2b068fc378daa952ba7f163c4a11628f55a4df523b3ef9181900360200190a35050565b80546001019055565b600082821115610fda576040805162461bcd60e51b815260206004820152601e60248201527f536166654d6174683a207375627472616374696f6e206f766572666c6f770000604482015290519081900360640190fd5b50900390565b80356001600160a01b038116811461047257600080fd5b803560ff8116811461047257600080fd5b600060208284031215611019578081fd5b610abb82610fe0565b60008060408385031215611034578081fd5b61103d83610fe0565b915061104b60208401610fe0565b90509250929050565b600080600060608486031215611068578081fd5b61107184610fe0565b925061107f60208501610fe0565b9150604084013590509250925092565b600080600080600080600060e0888a0312156110a9578283fd5b6110b288610fe0565b96506110c060208901610fe0565b955060408801359450606088013593506110dc60808901610ff7565b925060a0880135915060c0880135905092959891949750929550565b6000806040838503121561110a578182fd5b61111383610fe0565b946020939093013593505050565b600060208284031215611132578081fd5b5035919050565b60006020828403121561114a578081fd5b610abb82610ff7565b901515815260200190565b90815260200190565b9586526001600160a01b0394851660208701529290931660408501526060840152608083019190915260a082015260c00190565b6000602080835283518082850152825b818110156111c7578581018301518582016040015282016111ab565b818111156111d85783604083870101525b50601f01601f1916929092016040019392505050565b6020808252601d908201527f45524332305065726d69743a206578706972656420646561646c696e65000000604082015260600190565b6020808252601e908201527f45524332305065726d69743a20696e76616c6964207369676e61747572650000604082015260600190565b60ff9190911681526020019056fe45524332303a207472616e7366657220746f20746865207a65726f206164647265737345524332303a206275726e20616d6f756e7420657863656564732062616c616e636545524332303a20617070726f766520746f20746865207a65726f206164647265737345524332303a207472616e7366657220616d6f756e7420657863656564732062616c616e636545434453413a20696e76616c6964207369676e6174757265202773272076616c756545434453413a20696e76616c6964207369676e6174757265202776272076616c756545524332303a207472616e7366657220616d6f756e74206578636565647320616c6c6f77616e636545524332303a206275726e20616d6f756e74206578636565647320616c6c6f77616e636545524332303a206275726e2066726f6d20746865207a65726f206164647265737345524332303a207472616e736665722066726f6d20746865207a65726f206164647265737345524332303a20617070726f76652066726f6d20746865207a65726f206164647265737345524332303a2064656372656173656420616c6c6f77616e63652062656c6f77207a65726fa2646970667358221220f9e657dc4c6d72533074ab7c03555dbaf855e5537ed7d2d8ba683307415e4af064736f6c63430007060033",
    "linkReferences": {}
  },
  "methodIdentifiers": {
    "DOMAIN_SEPARATOR()": "3644e515",
    "allowance(address,address)": "dd62ed3e",
    "approve(address,uint256)": "095ea7b3",
    "balanceOf(address)": "70a08231",
    "burn(uint256)": "42966c68",
    "burnFrom(address,uint256)": "79cc6790",
    "decimals()": "313ce567",
    "decreaseAllowance(address,uint256)": "a457c2d7",
    "increaseAllowance(address,uint256)": "39509351",
    "mint(address,uint256)": "40c10f19",
    "name()": "06fdde03",
    "nonces(address)": "7ecebe00",
    "permit(address,address,uint256,uint256,uint8,bytes32,bytes32)": "d505accf",
    "setDecimals(uint8)": "7a1395aa",
    "symbol()": "95d89b41",
    "totalSupply()": "18160ddd",
    "transfer(address,uint256)": "a9059cbb",
    "transferFrom(address,address,uint256)": "23b872dd"
  },
  "id": 9
}