{
  "abi": [
    {
      "inputs": [],
      "stateMutability": "nonpayable",
      "type": "constructor"
    },
    {
      "anonymous": false,
      "inputs": [
        {
          "indexed": true,
          "internalType": "address",
          "name": "owner",
          "type": "address"
        },
        {
          "indexed": true,
          "internalType": "address",
          "name": "spender",
          "type": "address"
        },
        {
          "indexed": false,
          "internalType": "uint256",
          "name": "value",
          "type": "uint256"
        }
      ],
      "name": "Approval",
      "type": "event"
    },
    {
      "anonymous": false,
      "inputs": [
        {
          "indexed": true,
          "internalType": "address",
          "name": "dst",
          "type": "address"
        },
        {
          "indexed": false,
          "internalType": "uint256",
          "name": "wad",
          "type": "uint256"
        }
      ],
      "name": "Deposit",
      "type": "event"
    },
    {
      "anonymous": false,
      "inputs": [
        {
          "indexed": true,
          "internalType": "address",
          "name": "from",
          "type": "address"
        },
        {
          "indexed": true,
          "internalType": "address",
          "name": "to",
          "type": "address"
        },
        {
          "indexed": false,
          "internalType": "uint256",
          "name": "value",
          "type": "uint256"
        }
      ],
      "name": "Transfer",
      "type": "event"
    },
    {
      "anonymous": false,
      "inputs": [
        {
          "indexed": true,
          "internalType": "address",
          "name": "src",
          "type": "address"
        },
        {
          "indexed": false,
          "internalType": "uint256",
          "name": "wad",
          "type": "uint256"
        }
      ],
      "name": "Withdrawal",
      "type": "event"
    },
    {
      "inputs": [],
      "name": "DOMAIN_SEPARATOR",
      "outputs": [
        {
          "internalType": "bytes32",
          "name": "",
          "type": "bytes32"
        }
      ],
      "stateMutability": "view",
      "type": "function"
    },
    {
      "inputs": [
        {
          "internalType": "address",
          "name": "owner",
          "type": "address"
        },
        {
          "internalType": "address",
          "name": "spender",
          "type": "address"
        }
      ],
      "name": "allowance",
      "outputs": [
        {
          "internalType": "uint256",
          "name": "",
          "type": "uint256"
        }
      ],
      "stateMutability": "view",
      "type": "function"
    },
    {
      "inputs": [
        {
          "internalType": "address",
          "name": "spender",
          "type": "address"
        },
        {
          "internalType": "uint256",
          "name": "amount",
          "type": "uint256"
        }
      ],
      "name": "approve",
      "outputs": [
        {
          "internalType": "bool",
          "name": "",
          "type": "bool"
        }
      ],
      "stateMutability": "nonpayable",
      "type": "function"
    },
    {
      "inputs": [
        {
          "internalType": "address",
          "name": "account",
          "type": "address"
        }
      ],
      "name": "balanceOf",
      "outputs": [
        {
          "internalType": "uint256",
          "name": "",
          "type": "uint256"
        }
      ],
      "stateMutability": "view",
      "type": "function"
    },
    {
      "inputs": [
        {
          "internalType": "uint256",
          "name": "amount",
          "type": "uint256"
        }
      ],
      "name": "burn",
      "outputs": [],
      "stateMutability": "nonpayable",
      "type": "function"
    },
    {
      "inputs": [
        {
          "internalType": "address",
          "name": "account",
          "type": "address"
        },
        {
          "internalType": "uint256",
          "name": "amount",
          "type": "uint256"
        }
      ],
      "name": "burnFrom",
      "outputs": [],
      "stateMutability": "nonpayable",
      "type": "function"
    },
    {
      "inputs": [],
      "name": "decimals",
      "outputs": [
        {
          "internalType": "uint8",
          "name": "",
          "type": "uint8"
        }
      ],
      "stateMutability": "view",
      "type": "function"
    },
    {
      "inputs": [
        {
          "internalType": "address",
          "name": "spender",
          "type": "address"
        },
        {
          "internalType": "uint256",
          "name": "subtractedValue",
          "type": "uint256"
        }
      ],
      "name": "decreaseAllowance",
      "outputs": [
        {
          "internalType": "bool",
          "name": "",
          "type": "bool"
        }
      ],
      "stateMutability": "nonpayable",
      "type": "function"
    },
    {
      "inputs": [],
      "name": "deposit",
      "outputs": [],
      "stateMutability": "payable",
      "type": "function"
    },
    {
      "inputs": [
        {
          "internalType": "address",
          "name": "spender",
          "type": "address"
        },
        {
          "internalType": "uint256",
          "name": "addedValue",
          "type": "uint256"
        }
      ],
      "name": "increaseAllowance",
      "outputs": [
        {
          "internalType": "bool",
          "name": "",
          "type": "bool"
        }
      ],
      "stateMutability": "nonpayable",
      "type": "function"
    },
    {
      "inputs": [
        {
          "internalType": "address",
          "name": "account",
          "type": "address"
        },
        {
          "internalType": "uint256",
          "name": "amount",
          "type": "uint256"
        }
      ],
      "name": "mint",
      "outputs": [
        {
          "internalType": "bool",
          "name": "",
          "type": "bool"
        }
      ],
      "stateMutability": "nonpayable",
      "type": "function"
    },
    {
      "inputs": [],
      "name": "name",
      "outputs": [
        {
          "internalType": "string",
          "name": "",
          "type": "string"
        }
      ],
      "stateMutability": "view",
      "type": "function"
    },
    {
      "inputs": [
        {
          "internalType": "address",
          "name": "owner",
          "type": "address"
        }
      ],
      "name": "nonces",
      "outputs": [
        {
          "internalType": "uint256",
          "name": "",
          "type": "uint256"
        }
      ],
      "stateMutability": "view",
      "type": "function"
    },
    {
      "inputs": [
        {
          "internalType": "address",
          "name": "owner",
          "type": "address"
        },
        {
          "internalType": "address",
          "name": "spender",
          "type": "address"
        },
        {
          "internalType": "uint256",
          "name": "value",
          "type": "uint256"
        },
        {
          "internalType": "uint256",
          "name": "deadline",
          "type": "uint256"
        },
        {
          "internalType": "uint8",
          "name": "v",
          "type": "uint8"
        },
        {
          "internalType": "bytes32",
          "name": "r",
          "type": "bytes32"
        },
        {
          "internalType": "bytes32",
          "name": "s",
          "type": "bytes32"
        }
      ],
      "name": "permit",
      "outputs": [],
      "stateMutability": "nonpayable",
      "type": "function"
    },
    {
      "inputs": [
        {
          "internalType": "uint8",
          "name": "dec",
          "type": "uint8"
        }
      ],
      "name": "setDecimals",
      "outputs": [],
      "stateMutability": "nonpayable",
      "type": "function"
    },
    {
      "inputs": [],
      "name": "symbol",
      "outputs": [
        {
          "internalType": "string",
          "name": "",
          "type": "string"
        }
      ],
      "stateMutability": "view",
      "type": "function"
    },
    {
      "inputs": [],
      "name": "totalSupply",
      "outputs": [
        {
          "internalType": "uint256",
          "name": "",
          "type": "uint256"
        }
      ],
      "stateMutability": "view",
      "type": "function"
    },
    {
      "inputs": [
        {
          "internalType": "address",
          "name": "recipient",
          "type": "address"
        },
        {
          "internalType": "uint256",
          "name": "amount",
          "type": "uint256"
        }
      ],
      "name": "transfer",
      "outputs": [
        {
          "internalType": "bool",
          "name": "",
          "type": "bool"
        }
      ],
      "stateMutability": "nonpayable",
      "type": "function"
    },
    {
      "inputs": [
        {
          "internalType": "address",
          "name": "sender",
          "type": "address"
        },
        {
          "internalType": "address",
          "name": "recipient",
          "type": "address"
        },
        {
          "internalType": "uint256",
          "name": "amount",
          "type": "uint256"
        }
      ],
      "name": "transferFrom",
      "outputs": [
        {
          "internalType": "bool",
          "name": "",
          "type": "bool"
        }
      ],
      "stateMutability": "nonpayable",
      "type": "function"
    },
    {
      "inputs": [
        {
          "internalType": "uint256",
          "name": "wad",
          "type": "uint256"
        }
      ],
      "name": "withdraw",
      "outputs": [],
      "stateMutability": "nonpayable",
      "type": "function"
    },
    {
      "stateMutability": "payable",
      "type": "receive"
    }
  ],
  "bytecode": {
    "object": "0x6101206040526008805460ff191660121790553480156200001f57600080fd5b506040518060400160405280600d81526020016c2bb930b83832b21022ba3432b960991b815250604051806040016040528060048152602001630ae8aa8960e31b8152508180604051806040016040528060018152602001603160f81b815250848481600390805190602001906200009992919062000195565b508051620000af90600490602084019062000195565b50506005805460ff1916601217905550815160208084019190912082519183019190912060c082905260e08190527f8b73c3c69bb8fe3d512ecc4cf759cc79239f7b179b0ffacaa9a75d522b39400f620001086200012d565b60a0526200011881848462000131565b60805261010052506200024195505050505050565b4690565b6000838383620001406200012d565b3060405160200180868152602001858152602001848152602001838152602001826001600160a01b03168152602001955050505050506040516020818303038152906040528051906020012090509392505050565b828054600181600116156101000203166002900490600052602060002090601f016020900481019282620001cd576000855562000218565b82601f10620001e857805160ff191683800117855562000218565b8280016001018555821562000218579182015b8281111562000218578251825591602001919060010190620001fb565b50620002269291506200022a565b5090565b5b808211156200022657600081556001016200022b565b60805160a05160c05160e051610100516116b76200028160003980610f32525080610f74525080610f53525080610ed9525080610f0952506116b76000f3fe6080604052600436106101635760003560e01c806370a08231116100c0578063a457c2d711610074578063d0e30db011610059578063d0e30db014610511578063d505accf14610519578063dd62ed3e1461057757610172565b8063a457c2d71461049f578063a9059cbb146104d857610172565b80637a1395aa116100a55780637a1395aa1461042a5780637ecebe001461045757806395d89b411461048a57610172565b806370a08231146103be57806379cc6790146103f157610172565b8063313ce5671161011757806339509351116100fc578063395093511461032257806340c10f191461035b57806342966c681461039457610172565b8063313ce567146102e25780633644e5151461030d57610172565b806318160ddd1161014857806318160ddd1461024e57806323b872dd146102755780632e1a7d4d146102b857610172565b806306fdde0314610177578063095ea7b31461020157610172565b36610172576101706105b2565b005b600080fd5b34801561018357600080fd5b5061018c6105f4565b6040805160208082528351818301528351919283929083019185019080838360005b838110156101c65781810151838201526020016101ae565b50505050905090810190601f1680156101f35780820380516001836020036101000a031916815260200191505b509250505060405180910390f35b34801561020d57600080fd5b5061023a6004803603604081101561022457600080fd5b506001600160a01b03813516906020013561068b565b604080519115158252519081900360200190f35b34801561025a57600080fd5b506102636106a8565b60408051918252519081900360200190f35b34801561028157600080fd5b5061023a6004803603606081101561029857600080fd5b506001600160a01b038135811691602081013590911690604001356106ae565b3480156102c457600080fd5b50610170600480360360208110156102db57600080fd5b5035610735565b3480156102ee57600080fd5b506102f761082c565b6040805160ff9092168252519081900360200190f35b34801561031957600080fd5b50610263610835565b34801561032e57600080fd5b5061023a6004803603604081101561034557600080fd5b506001600160a01b038135169060200135610844565b34801561036757600080fd5b5061023a6004803603604081101561037e57600080fd5b506001600160a01b038135169060200135610892565b3480156103a057600080fd5b50610170600480360360208110156103b757600080fd5b503561089e565b3480156103ca57600080fd5b50610263600480360360208110156103e157600080fd5b50356001600160a01b03166108aa565b3480156103fd57600080fd5b506101706004803603604081101561041457600080fd5b506001600160a01b0381351690602001356108c5565b34801561043657600080fd5b506101706004803603602081101561044d57600080fd5b503560ff166108d3565b34801561046357600080fd5b506102636004803603602081101561047a57600080fd5b50356001600160a01b03166108e9565b34801561049657600080fd5b5061018c610910565b3480156104ab57600080fd5b5061023a600480360360408110156104c257600080fd5b506001600160a01b038135169060200135610971565b3480156104e457600080fd5b5061023a600480360360408110156104fb57600080fd5b506001600160a01b0381351690602001356109d9565b6101706105b2565b34801561052557600080fd5b50610170600480360360e081101561053c57600080fd5b506001600160a01b03813581169160208101359091169060408101359060608101359060ff6080820135169060a08101359060c001356109ed565b34801561058357600080fd5b506102636004803603604081101561059a57600080fd5b506001600160a01b0381358116916020013516610ad8565b6105bc3334610b03565b60408051348152905133917fe1fffcc4923d04b559f4d29a8bfc6cda04eb5b0d3c460751c2402c5c5cc9109c919081900360200190a2565b60038054604080516020601f60026000196101006001881615020190951694909404938401819004810282018101909252828152606093909290918301828280156106805780601f1061065557610100808354040283529160200191610680565b820191906000526020600020905b81548152906001019060200180831161066357829003601f168201915b505050505090505b90565b600061069f610698610bf3565b8484610bf7565b50600192915050565b60025490565b60006106bb848484610ce3565b61072b846106c7610bf3565b610726856040518060600160405280602881526020016115a7602891396001600160a01b038a16600090815260016020526040812090610705610bf3565b6001600160a01b031681526020810191909152604001600020549190610e3e565b610bf7565b5060019392505050565b8061073f336108aa565b101561074a57600080fd5b610755333083610ce3565b604051600090339083908381818185875af1925050503d8060008114610797576040519150601f19603f3d011682016040523d82523d6000602084013e61079c565b606091505b50509050806107f2576040805162461bcd60e51b815260206004820152601a60248201527f4d6f636b574554483a205472616e73666572206661696c65642e000000000000604482015290519081900360640190fd5b60408051838152905133917f7fcf532c15f0a6db0bd6d0e038bea71d30d808c7d98cb3bf7268a95bf5081b65919081900360200190a25050565b60085460ff1690565b600061083f610ed5565b905090565b600061069f610851610bf3565b846107268560016000610862610bf3565b6001600160a01b03908116825260208083019390935260409182016000908120918c168152925290205490610f9f565b600061069f8383610b03565b6108a781611000565b50565b6001600160a01b031660009081526020819052604090205490565b6108cf8282611011565b5050565b6008805460ff191660ff92909216919091179055565b6001600160a01b038116600090815260066020526040812061090a9061106b565b92915050565b60048054604080516020601f60026000196101006001881615020190951694909404938401819004810282018101909252828152606093909290918301828280156106805780601f1061065557610100808354040283529160200191610680565b600061069f61097e610bf3565b846107268560405180606001604052806025815260200161165d60259139600160006109a8610bf3565b6001600160a01b03908116825260208083019390935260409182016000908120918d16815292529020549190610e3e565b600061069f6109e6610bf3565b8484610ce3565b83421115610a165760405162461bcd60e51b8152600401610a0d90611467565b60405180910390fd5b60007f6e71edae12b1b97f4d1f60370fef10105fa2faae0126114a169c64845d6126c9888888610a458c61106f565b89604051602001610a5b96959493929190611433565b6040516020818303038152906040528051906020012090506000610a7e826110a1565b90506000610a8e828787876110ed565b9050896001600160a01b0316816001600160a01b031614610ac15760405162461bcd60e51b8152600401610a0d9061149e565b610acc8a8a8a610bf7565b50505050505050505050565b6001600160a01b03918216600090815260016020908152604080832093909416825291909152205490565b6001600160a01b038216610b5e576040805162461bcd60e51b815260206004820152601f60248201527f45524332303a206d696e7420746f20746865207a65726f206164647265737300604482015290519081900360640190fd5b610b6a60008383611066565b600254610b779082610f9f565b6002556001600160a01b038216600090815260208190526040902054610b9d9082610f9f565b6001600160a01b0383166000818152602081815260408083209490945583518581529351929391927fddf252ad1be2c89b69c2b068fc378daa952ba7f163c4a11628f55a4df523b3ef9281900390910190a35050565b3390565b6001600160a01b038316610c3c5760405162461bcd60e51b81526004018080602001828103825260248152602001806116396024913960400191505060405180910390fd5b6001600160a01b038216610c815760405162461bcd60e51b815260040180806020018281038252602281526020018061151b6022913960400191505060405180910390fd5b6001600160a01b03808416600081815260016020908152604080832094871680845294825291829020859055815185815291517f8c5be1e5ebec7d5bd14f71427d1e84f3dd0314c0f7b2291e5b200ac8c7c3b9259281900390910190a3505050565b6001600160a01b038316610d285760405162461bcd60e51b81526004018080602001828103825260258152602001806116146025913960400191505060405180910390fd5b6001600160a01b038216610d6d5760405162461bcd60e51b81526004018080602001828103825260238152602001806114d66023913960400191505060405180910390fd5b610d78838383611066565b610db58160405180606001604052806026815260200161153d602691396001600160a01b0386166000908152602081905260409020549190610e3e565b6001600160a01b038085166000908152602081905260408082209390935590841681522054610de49082610f9f565b6001600160a01b038084166000818152602081815260409182902094909455805185815290519193928716927fddf252ad1be2c89b69c2b068fc378daa952ba7f163c4a11628f55a4df523b3ef92918290030190a3505050565b60008184841115610ecd5760405162461bcd60e51b81526004018080602001828103825283818151815260200191508051906020019080838360005b83811015610e92578181015183820152602001610e7a565b50505050905090810190601f168015610ebf5780820380516001836020036101000a031916815260200191505b509250505060405180910390fd5b505050900390565b60007f0000000000000000000000000000000000000000000000000000000000000000610f0061126b565b1415610f2d57507f0000000000000000000000000000000000000000000000000000000000000000610688565b610f987f00000000000000000000000000000000000000000000000000000000000000007f00000000000000000000000000000000000000000000000000000000000000007f000000000000000000000000000000000000000000000000000000000000000061126f565b9050610688565b600082820183811015610ff9576040805162461bcd60e51b815260206004820152601b60248201527f536166654d6174683a206164646974696f6e206f766572666c6f770000000000604482015290519081900360640190fd5b9392505050565b6108a761100b610bf3565b826112d1565b6000611048826040518060600160405280602481526020016115cf602491396110418661103c610bf3565b610ad8565b9190610e3e565b905061105c83611056610bf3565b83610bf7565b61106683836112d1565b505050565b5490565b6001600160a01b03811660009081526006602052604081206110908161106b565b915061109b816113cd565b50919050565b60006110ab610ed5565b82604051602001808061190160f01b81525060020183815260200182815260200192505050604051602081830303815290604052805190602001209050919050565b60007f7fffffffffffffffffffffffffffffff5d576e7357a4501ddfe92f46681b20a082111561114e5760405162461bcd60e51b81526004018080602001828103825260228152602001806115636022913960400191505060405180910390fd5b8360ff16601b148061116357508360ff16601c145b61119e5760405162461bcd60e51b81526004018080602001828103825260228152602001806115856022913960400191505060405180910390fd5b600060018686868660405160008152602001604052604051808581526020018460ff1681526020018381526020018281526020019450505050506020604051602081039080840390855afa1580156111fa573d6000803e3d6000fd5b5050604051601f1901519150506001600160a01b038116611262576040805162461bcd60e51b815260206004820152601860248201527f45434453413a20696e76616c6964207369676e61747572650000000000000000604482015290519081900360640190fd5b95945050505050565b4690565b600083838361127c61126b565b3060405160200180868152602001858152602001848152602001838152602001826001600160a01b03168152602001955050505050506040516020818303038152906040528051906020012090509392505050565b6001600160a01b0382166113165760405162461bcd60e51b81526004018080602001828103825260218152602001806115f36021913960400191505060405180910390fd5b61132282600083611066565b61135f816040518060600160405280602281526020016114f9602291396001600160a01b0385166000908152602081905260409020549190610e3e565b6001600160a01b03831660009081526020819052604090205560025461138590826113d6565b6002556040805182815290516000916001600160a01b038516917fddf252ad1be2c89b69c2b068fc378daa952ba7f163c4a11628f55a4df523b3ef9181900360200190a35050565b80546001019055565b60008282111561142d576040805162461bcd60e51b815260206004820152601e60248201527f536166654d6174683a207375627472616374696f6e206f766572666c6f770000604482015290519081900360640190fd5b50900390565b9586526001600160a01b0394851660208701529290931660408501526060840152608083019190915260a082015260c00190565b6020808252601d908201527f45524332305065726d69743a206578706972656420646561646c696e65000000604082015260600190565b6020808252601e908201527f45524332305065726d69743a20696e76616c6964207369676e6174757265000060408201526060019056fe45524332303a207472616e7366657220746f20746865207a65726f206164647265737345524332303a206275726e20616d6f756e7420657863656564732062616c616e636545524332303a20617070726f766520746f20746865207a65726f206164647265737345524332303a207472616e7366657220616d6f756e7420657863656564732062616c616e636545434453413a20696e76616c6964207369676e6174757265202773272076616c756545434453413a20696e76616c6964207369676e6174757265202776272076616c756545524332303a207472616e7366657220616d6f756e74206578636565647320616c6c6f77616e636545524332303a206275726e20616d6f756e74206578636565647320616c6c6f77616e636545524332303a206275726e2066726f6d20746865207a65726f206164647265737345524332303a207472616e736665722066726f6d20746865207a65726f206164647265737345524332303a20617070726f76652066726f6d20746865207a65726f206164647265737345524332303a2064656372656173656420616c6c6f77616e63652062656c6f77207a65726fa26469706673582212200d7b1deb83646a4c075a8a74abce06ec185e91fcb61669579fdcf7d0d670c72464736f6c63430007060033",
    "linkReferences": {}
  },
  "methodIdentifiers": {
    "DOMAIN_SEPARATOR()": "3644e515",
    "allowance(address,address)": "dd62ed3e",
    "approve(address,uint256)": "095ea7b3",
    "balanceOf(address)": "70a08231",
    "burn(uint256)": "42966c68",
    "burnFrom(address,uint256)": "79cc6790",
    "decimals()": "313ce567",
    "decreaseAllowance(address,uint256)": "a457c2d7",
    "deposit()": "d0e30db0",
    "increaseAllowance(address,uint256)": "39509351",
    "mint(address,uint256)": "40c10f19",
    "name()": "06fdde03",
    "nonces(address)": "7ecebe00",
    "permit(address,address,uint256,uint256,uint8,bytes32,bytes32)": "d505accf",
    "setDecimals(uint8)": "7a1395aa",
    "symbol()": "95d89b41",
    "totalSupply()": "18160ddd",
    "transfer(address,uint256)": "a9059cbb",
    "transferFrom(address,address,uint256)": "23b872dd",
    "withdraw(uint256)": "2e1a7d4d"
  },
  "id": 8
}