{
  "abi": [
    {
      "inputs": [
        {
          "components": [
            {
              "internalType": "address",
              "name": "target",
              "type": "address"
            },
            {
              "internalType": "bytes",
              "name": "callData",
              "type": "bytes"
            },
            {
              "internalType": "bytes",
              "name": "clipboard",
              "type": "bytes"
            }
          ],
          "internalType": "struct AdvancedPipeCall[]",
          "name": "pipes",
          "type": "tuple[]"
        },
        {
          "internalType": "uint256",
          "name": "value",
          "type": "uint256"
        }
      ],
      "name": "advancedPipe",
      "outputs": [
        {
          "internalType": "bytes[]",
          "name": "results",
          "type": "bytes[]"
        }
      ],
      "stateMutability": "payable",
      "type": "function"
    },
    {
      "inputs": [
        {
          "internalType": "contract IERC1155",
          "name": "token",
          "type": "address"
        },
        {
          "internalType": "address",
          "name": "to",
          "type": "address"
        },
        {
          "internalType": "uint256[]",
          "name": "ids",
          "type": "uint256[]"
        },
        {
          "internalType": "uint256[]",
          "name": "values",
          "type": "uint256[]"
        }
      ],
      "name": "batchTransferERC1155",
      "outputs": [],
      "stateMutability": "payable",
      "type": "function"
    },
    {
      "inputs": [
        {
          "components": [
            {
              "internalType": "address",
              "name": "target",
              "type": "address"
            },
            {
              "internalType": "bytes",
              "name": "data",
              "type": "bytes"
            }
          ],
          "internalType": "struct PipeCall",
          "name": "p",
          "type": "tuple"
        },
        {
          "internalType": "uint256",
          "name": "value",
          "type": "uint256"
        }
      ],
      "name": "etherPipe",
      "outputs": [
        {
          "internalType": "bytes",
          "name": "result",
          "type": "bytes"
        }
      ],
      "stateMutability": "payable",
      "type": "function"
    },
    {
      "inputs": [
        {
          "internalType": "bytes[]",
          "name": "data",
          "type": "bytes[]"
        }
      ],
      "name": "farm",
      "outputs": [
        {
          "internalType": "bytes[]",
          "name": "results",
          "type": "bytes[]"
        }
      ],
      "stateMutability": "payable",
      "type": "function"
    },
    {
      "inputs": [
        {
          "components": [
            {
              "internalType": "address",
              "name": "target",
              "type": "address"
            },
            {
              "internalType": "bytes",
              "name": "data",
              "type": "bytes"
            }
          ],
          "internalType": "struct PipeCall[]",
          "name": "pipes",
          "type": "tuple[]"
        }
      ],
      "name": "multiPipe",
      "outputs": [
        {
          "internalType": "bytes[]",
          "name": "results",
          "type": "bytes[]"
        }
      ],
      "stateMutability": "payable",
      "type": "function"
    },
    {
      "inputs": [
        {
          "internalType": "address",
          "name": "owner",
          "type": "address"
        },
        {
          "internalType": "address",
          "name": "spender",
          "type": "address"
        },
        {
          "internalType": "address",
          "name": "token",
          "type": "address"
        },
        {
          "internalType": "uint256",
          "name": "value",
          "type": "uint256"
        },
        {
          "internalType": "uint256",
          "name": "deadline",
          "type": "uint256"
        },
        {
          "internalType": "uint8",
          "name": "v",
          "type": "uint8"
        },
        {
          "internalType": "bytes32",
          "name": "r",
          "type": "bytes32"
        },
        {
          "internalType": "bytes32",
          "name": "s",
          "type": "bytes32"
        }
      ],
      "name": "permitDeposit",
      "outputs": [],
      "stateMutability": "payable",
      "type": "function"
    },
    {
      "inputs": [
        {
          "internalType": "address",
          "name": "owner",
          "type": "address"
        },
        {
          "internalType": "address",
          "name": "spender",
          "type": "address"
        },
        {
          "internalType": "address[]",
          "name": "tokens",
          "type": "address[]"
        },
        {
          "internalType": "uint256[]",
          "name": "values",
          "type": "uint256[]"
        },
        {
          "internalType": "uint256",
          "name": "deadline",
          "type": "uint256"
        },
        {
          "internalType": "uint8",
          "name": "v",
          "type": "uint8"
        },
        {
          "internalType": "bytes32",
          "name": "r",
          "type": "bytes32"
        },
        {
          "internalType": "bytes32",
          "name": "s",
          "type": "bytes32"
        }
      ],
      "name": "permitDeposits",
      "outputs": [],
      "stateMutability": "payable",
      "type": "function"
    },
    {
      "inputs": [
        {
          "internalType": "contract IERC20Permit",
          "name": "token",
          "type": "address"
        },
        {
          "internalType": "address",
          "name": "owner",
          "type": "address"
        },
        {
          "internalType": "address",
          "name": "spender",
          "type": "address"
        },
        {
          "internalType": "uint256",
          "name": "value",
          "type": "uint256"
        },
        {
          "internalType": "uint256",
          "name": "deadline",
          "type": "uint256"
        },
        {
          "internalType": "uint8",
          "name": "v",
          "type": "uint8"
        },
        {
          "internalType": "bytes32",
          "name": "r",
          "type": "bytes32"
        },
        {
          "internalType": "bytes32",
          "name": "s",
          "type": "bytes32"
        }
      ],
      "name": "permitERC20",
      "outputs": [],
      "stateMutability": "payable",
      "type": "function"
    },
    {
      "inputs": [
        {
          "internalType": "contract IERC4494",
          "name": "token",
          "type": "address"
        },
        {
          "internalType": "address",
          "name": "spender",
          "type": "address"
        },
        {
          "internalType": "uint256",
          "name": "tokenId",
          "type": "uint256"
        },
        {
          "internalType": "uint256",
          "name": "deadline",
          "type": "uint256"
        },
        {
          "internalType": "bytes",
          "name": "sig",
          "type": "bytes"
        }
      ],
      "name": "permitERC721",
      "outputs": [],
      "stateMutability": "payable",
      "type": "function"
    },
    {
      "inputs": [
        {
          "internalType": "address",
          "name": "owner",
          "type": "address"
        },
        {
          "internalType": "address",
          "name": "spender",
          "type": "address"
        },
        {
          "internalType": "address",
          "name": "token",
          "type": "address"
        },
        {
          "internalType": "uint256",
          "name": "value",
          "type": "uint256"
        },
        {
          "internalType": "uint256",
          "name": "deadline",
          "type": "uint256"
        },
        {
          "internalType": "uint8",
          "name": "v",
          "type": "uint8"
        },
        {
          "internalType": "bytes32",
          "name": "r",
          "type": "bytes32"
        },
        {
          "internalType": "bytes32",
          "name": "s",
          "type": "bytes32"
        }
      ],
      "name": "permitToken",
      "outputs": [],
      "stateMutability": "payable",
      "type": "function"
    },
    {
      "inputs": [
        {
          "components": [
            {
              "internalType": "address",
              "name": "target",
              "type": "address"
            },
            {
              "internalType": "bytes",
              "name": "data",
              "type": "bytes"
            }
          ],
          "internalType": "struct PipeCall",
          "name": "p",
          "type": "tuple"
        }
      ],
      "name": "pipe",
      "outputs": [
        {
          "internalType": "bytes",
          "name": "result",
          "type": "bytes"
        }
      ],
      "stateMutability": "payable",
      "type": "function"
    },
    {
      "inputs": [
        {
          "components": [
            {
              "internalType": "address",
              "name": "target",
              "type": "address"
            },
            {
              "internalType": "bytes",
              "name": "data",
              "type": "bytes"
            }
          ],
          "internalType": "struct PipeCall",
          "name": "p",
          "type": "tuple"
        }
      ],
      "name": "readPipe",
      "outputs": [
        {
          "internalType": "bytes",
          "name": "result",
          "type": "bytes"
        }
      ],
      "stateMutability": "view",
      "type": "function"
    },
    {
      "inputs": [
        {
          "internalType": "address",
          "name": "sender",
          "type": "address"
        },
        {
          "internalType": "address",
          "name": "recipient",
          "type": "address"
        },
        {
          "internalType": "address",
          "name": "token",
          "type": "address"
        },
        {
          "internalType": "uint32",
          "name": "season",
          "type": "uint32"
        },
        {
          "internalType": "uint256",
          "name": "amount",
          "type": "uint256"
        }
      ],
      "name": "transferDeposit",
      "outputs": [
        {
          "internalType": "uint256",
          "name": "bdv",
          "type": "uint256"
        }
      ],
      "stateMutability": "payable",
      "type": "function"
    },
    {
      "inputs": [
        {
          "internalType": "address",
          "name": "sender",
          "type": "address"
        },
        {
          "internalType": "address",
          "name": "recipient",
          "type": "address"
        },
        {
          "internalType": "address",
          "name": "token",
          "type": "address"
        },
        {
          "internalType": "uint32[]",
          "name": "seasons",
          "type": "uint32[]"
        },
        {
          "internalType": "uint256[]",
          "name": "amounts",
          "type": "uint256[]"
        }
      ],
      "name": "transferDeposits",
      "outputs": [
        {
          "internalType": "uint256[]",
          "name": "bdvs",
          "type": "uint256[]"
        }
      ],
      "stateMutability": "payable",
      "type": "function"
    },
    {
      "inputs": [
        {
          "internalType": "contract IERC1155",
          "name": "token",
          "type": "address"
        },
        {
          "internalType": "address",
          "name": "to",
          "type": "address"
        },
        {
          "internalType": "uint256",
          "name": "id",
          "type": "uint256"
        },
        {
          "internalType": "uint256",
          "name": "value",
          "type": "uint256"
        }
      ],
      "name": "transferERC1155",
      "outputs": [],
      "stateMutability": "payable",
      "type": "function"
    },
    {
      "inputs": [
        {
          "internalType": "contract IERC721",
          "name": "token",
          "type": "address"
        },
        {
          "internalType": "address",
          "name": "to",
          "type": "address"
        },
        {
          "internalType": "uint256",
          "name": "id",
          "type": "uint256"
        }
      ],
      "name": "transferERC721",
      "outputs": [],
      "stateMutability": "payable",
      "type": "function"
    },
    {
      "inputs": [
        {
          "internalType": "contract IERC20",
          "name": "token",
          "type": "address"
        },
        {
          "internalType": "address",
          "name": "recipient",
          "type": "address"
        },
        {
          "internalType": "uint256",
          "name": "amount",
          "type": "uint256"
        },
        {
          "internalType": "enum From",
          "name": "fromMode",
          "type": "uint8"
        },
        {
          "internalType": "enum To",
          "name": "toMode",
          "type": "uint8"
        }
      ],
      "name": "transferToken",
      "outputs": [],
      "stateMutability": "payable",
      "type": "function"
    }
  ],
  "bytecode": {
    "object": "0x608060405234801561001057600080fd5b50611fd4806100206000396000f3fe60806040526004361061010e5760003560e01c80636e47d07b116100a5578063b442b39811610074578063cabec62b11610059578063cabec62b1461025c578063d5770dc71461026f578063dd756c4f146102825761010e565b8063b442b39814610236578063b452c7ae146102495761010e565b80636e47d07b146101dd5780637c516e94146101f05780639e32d26114610203578063a9412a59146102235761010e565b80631aca6376116100e15780631aca637614610184578063300dd6cf146101975780634935ed43146101b75780636204aa43146101ca5761010e565b806308e1a0ab146101135780630a7e880c1461013c5780630d2615b114610151578063120b570214610171575b600080fd5b610126610121366004611739565b6102a2565b6040516101339190611d64565b60405180910390f35b61014f61014a366004611553565b610338565b005b61016461015f3660046110a6565b6103b1565b6040516101339190611d20565b61014f61017f36600461114b565b610489565b61014f6101923660046116b3565b61050a565b6101aa6101a53660046112eb565b610571565b6040516101339190611b9f565b61014f6101c5366004611605565b610674565b61014f6101d8366004611598565b6106df565b6101266101eb36600461176c565b6107b6565b61014f6101fe36600461114b565b61084f565b6102166102113660046111cb565b610894565b6040516101339190611e39565b61014f6102313660046114c1565b610959565b61014f61024436600461114b565b6109f7565b6101aa6102573660046113b4565b610a2f565b6101aa61026a3660046112eb565b610acb565b61014f61027d36600461122c565b610b5d565b34801561028e57600080fd5b5061012661029d366004611739565b610be4565b6040516308e1a0ab60e01b815260609073b1be0000bfdcddc92a8290202830c4ef689dceaa906308e1a0ab906102dc908590600401611e26565b600060405180830381600087803b1580156102f657600080fd5b505af115801561030a573d6000803e3d6000fd5b505050506040513d6000823e601f3d908101601f19168201604052610332919081019061148e565b92915050565b60408051600081526020810191829052637921219560e11b9091526001600160a01b0385169063f242432a9061037990339087908790879060248101611a0c565b600060405180830381600087803b15801561039357600080fd5b505af11580156103a7573d6000803e3d6000fd5b5050505050505050565b60606001600160a01b03881633146103e45760405162461bcd60e51b81526004016103db90611db8565b60405180910390fd5b604051630d2615b160e01b815273c1e088fc1323b20bcbee9bd1b9fc9546db5624c590630d2615b1906104279033908b908b908b908b908b908b906004016118c4565b600060405180830381600087803b15801561044157600080fd5b505af1158015610455573d6000803e3d6000fd5b505050506040513d6000823e601f3d908101601f1916820160405261047d91908101906113fe565b98975050505050505050565b604051630905ab8160e11b815273c1e088fc1323b20bcbee9bd1b9fc9546db5624c59063120b5702906104ce908b908b908b908b908b908b908b908b90600401611a44565b600060405180830381600087803b1580156104e857600080fd5b505af11580156104fc573d6000803e3d6000fd5b505050505050505050505050565b604051632142170760e11b81526001600160a01b038416906342842e0e9061053a903390869086906004016119e8565b600060405180830381600087803b15801561055457600080fd5b505af1158015610568573d6000803e3d6000fd5b50505050505050565b60608167ffffffffffffffff8111801561058a57600080fd5b506040519080825280602002602001820160405280156105be57816020015b60608152602001906001900390816105a95790505b50905060005b8281101561066d57600080308686858181106105dc57fe5b90506020028101906105ee9190611e42565b6040516105fc9291906118b4565b600060405180830381855af49150503d8060008114610637576040519150601f19603f3d011682016040523d82523d6000602084013e61063c565b606091505b509150915061064b8282610c6e565b8084848151811061065857fe5b602090810291909101015250506001016105c4565b5092915050565b604051631d16906f60e21b81526001600160a01b0386169063745a41bc906106a6908790879087908790600401611b71565b600060405180830381600087803b1580156106c057600080fd5b505af11580156106d4573d6000803e3d6000fd5b505050505050505050565b60008260038111156106ed57fe5b141561070d576107086001600160a01b038616338686610cb9565b6107af565b600182600381111561071b57fe5b14156107975760405163d3f4ec6f60e01b815273c1e088fc1323b20bcbee9bd1b9fc9546db5624c59063d3f4ec6f906107609088903390899089908890600401611d77565b600060405180830381600087803b15801561077a57600080fd5b505af115801561078e573d6000803e3d6000fd5b505050506107af565b60405162461bcd60e51b81526004016103db90611def565b5050505050565b6040516308e1a0ab60e01b815260609073b1be0000bfdcddc92a8290202830c4ef689dceaa906308e1a0ab9084906107f2908790600401611e26565b6000604051808303818588803b15801561080b57600080fd5b505af115801561081f573d6000803e3d6000fd5b50505050506040513d6000823e601f3d908101601f19168201604052610848919081019061148e565b9392505050565b604051631f145ba560e21b815273c1e088fc1323b20bcbee9bd1b9fc9546db5624c590637c516e94906104ce908b908b908b908b908b908b908b908b90600401611a44565b60006001600160a01b03861633146108be5760405162461bcd60e51b81526004016103db90611db8565b604051639e32d26160e01b815273c1e088fc1323b20bcbee9bd1b9fc9546db5624c590639e32d261906108fd903390899089908990899060040161194d565b602060405180830381600087803b15801561091757600080fd5b505af115801561092b573d6000803e3d6000fd5b505050506040513d601f19601f8201168201806040525081019061094f91906117af565b9695505050505050565b6001600160a01b038616632eb2c2d633878787878760006040519080825280601f01601f19166020018201604052801561099a576020820181803683370190505b506040518863ffffffff1660e01b81526004016109bd9796959493929190611986565b600060405180830381600087803b1580156109d757600080fd5b505af11580156109eb573d6000803e3d6000fd5b50505050505050505050565b60405163d505accf60e01b81526001600160a01b0389169063d505accf906104ce908a908a908a908a908a908a908a90600401611b30565b604051630e0506af60e11b815260609073b1be0000bfdcddc92a8290202830c4ef689dceaa90631c0a0d5e908490610a6d9088908890600401611bff565b6000604051808303818588803b158015610a8657600080fd5b505af1158015610a9a573d6000803e3d6000fd5b50505050506040513d6000823e601f3d908101601f19168201604052610ac3919081019061132b565b949350505050565b60405163cabec62b60e01b815260609073b1be0000bfdcddc92a8290202830c4ef689dceaa9063cabec62b90610b079086908690600401611cb2565b600060405180830381600087803b158015610b2157600080fd5b505af1158015610b35573d6000803e3d6000fd5b505050506040513d6000823e601f3d908101601f19168201604052610848919081019061132b565b60405163d5770dc760e01b815273c1e088fc1323b20bcbee9bd1b9fc9546db5624c59063d5770dc790610ba6908d908d908d908d908d908d908d908d908d908d90600401611a8e565b600060405180830381600087803b158015610bc057600080fd5b505af1158015610bd4573d6000803e3d6000fd5b5050505050505050505050505050565b60606000610bf5602084018461108a565b6001600160a01b0316610c0b6020850185611e42565b604051610c199291906118b4565b600060405180830381855afa9150503d8060008114610c54576040519150601f19603f3d011682016040523d82523d6000602084013e610c59565b606091505b5092509050610c688183610c6e565b50919050565b81610cb557604481511015610c8257600080fd5b60048101905080806020019051810190610c9c91906116f3565b60405162461bcd60e51b81526004016103db9190611d64565b5050565b604080516001600160a01b0380861660248301528416604482015260648082018490528251808303909101815260849091019091526020810180517bffffffffffffffffffffffffffffffffffffffffffffffffffffffff166323b872dd60e01b179052610d28908590610d2e565b50505050565b6000610d83826040518060400160405280602081526020017f5361666545524332303a206c6f772d6c6576656c2063616c6c206661696c6564815250856001600160a01b0316610de49092919063ffffffff16565b805190915015610ddf57808060200190516020811015610da257600080fd5b5051610ddf5760405162461bcd60e51b815260040180806020018281038252602a815260200180611f75602a913960400191505060405180910390fd5b505050565b6060610ac3848460008585610df885610f09565b610e49576040805162461bcd60e51b815260206004820152601d60248201527f416464726573733a2063616c6c20746f206e6f6e2d636f6e7472616374000000604482015290519081900360640190fd5b600080866001600160a01b031685876040518082805190602001908083835b60208310610e875780518252601f199092019160209182019101610e68565b6001836020036101000a03801982511681845116808217855250505050505090500191505060006040518083038185875af1925050503d8060008114610ee9576040519150601f19603f3d011682016040523d82523d6000602084013e610eee565b606091505b5091509150610efe828286610f13565b979650505050505050565b803b15155b919050565b60608315610f22575081610848565b825115610f325782518084602001fd5b8160405162461bcd60e51b81526004018080602001828103825283818151815260200191508051906020019080838360005b83811015610f7c578181015183820152602001610f64565b50505050905090810190601f168015610fa95780820380516001836020036101000a031916815260200191505b509250505060405180910390fd5b6000610fca610fc584611ec9565b611e87565b9050828152838383011115610fde57600080fd5b610848836020830184611f30565b60008083601f840112610ffd578182fd5b50813567ffffffffffffffff811115611014578182fd5b602083019150836020808302850101111561102e57600080fd5b9250929050565b600082601f830112611045578081fd5b61084883835160208501610fb7565b600060408284031215610c68578081fd5b803563ffffffff81168114610f0e57600080fd5b803560ff81168114610f0e57600080fd5b60006020828403121561109b578081fd5b813561084881611f5c565b600080600080600080600060a0888a0312156110c0578283fd5b87356110cb81611f5c565b965060208801356110db81611f5c565b955060408801356110eb81611f5c565b9450606088013567ffffffffffffffff80821115611107578485fd5b6111138b838c01610fec565b909650945060808a013591508082111561112b578384fd5b506111388a828b01610fec565b989b979a50959850939692959293505050565b600080600080600080600080610100898b031215611167578182fd5b883561117281611f5c565b9750602089013561118281611f5c565b9650604089013561119281611f5c565b955060608901359450608089013593506111ae60a08a01611079565b925060c0890135915060e089013590509295985092959890939650565b600080600080600060a086880312156111e2578283fd5b85356111ed81611f5c565b945060208601356111fd81611f5c565b9350604086013561120d81611f5c565b925061121b60608701611065565b949793965091946080013592915050565b6000806000806000806000806000806101008b8d03121561124b578384fd5b8a3561125681611f5c565b995060208b013561126681611f5c565b985060408b013567ffffffffffffffff80821115611282578586fd5b61128e8e838f01610fec565b909a50985060608d01359150808211156112a6578586fd5b506112b38d828e01610fec565b90975095505060808b013593506112cc60a08c01611079565b925060c08b0135915060e08b013590509295989b9194979a5092959850565b600080602083850312156112fd578182fd5b823567ffffffffffffffff811115611313578283fd5b61131f85828601610fec565b90969095509350505050565b6000602080838503121561133d578182fd5b825167ffffffffffffffff811115611353578283fd5b8301601f81018513611363578283fd5b8051611371610fc582611eab565b81815283810190838501865b848110156113a6576113948a888451890101611035565b8452928601929086019060010161137d565b509098975050505050505050565b6000806000604084860312156113c8578081fd5b833567ffffffffffffffff8111156113de578182fd5b6113ea86828701610fec565b909790965060209590950135949350505050565b60006020808385031215611410578182fd5b825167ffffffffffffffff811115611426578283fd5b8301601f81018513611436578283fd5b8051611444610fc582611eab565b8181528381019083850185840285018601891015611460578687fd5b8694505b83851015611482578051835260019490940193918501918501611464565b50979650505050505050565b60006020828403121561149f578081fd5b815167ffffffffffffffff8111156114b5578182fd5b610ac384828501611035565b600080600080600080608087890312156114d9578384fd5b86356114e481611f5c565b955060208701356114f481611f5c565b9450604087013567ffffffffffffffff80821115611510578586fd5b61151c8a838b01610fec565b90965094506060890135915080821115611534578384fd5b5061154189828a01610fec565b979a9699509497509295939492505050565b60008060008060808587031215611568578182fd5b843561157381611f5c565b9350602085013561158381611f5c565b93969395505050506040820135916060013590565b600080600080600060a086880312156115af578283fd5b85356115ba81611f5c565b945060208601356115ca81611f5c565b9350604086013592506060860135600481106115e4578182fd5b91506080860135600281106115f7578182fd5b809150509295509295909350565b600080600080600060a0868803121561161c578283fd5b853561162781611f5c565b9450602086013561163781611f5c565b93506040860135925060608601359150608086013567ffffffffffffffff811115611660578182fd5b8601601f81018813611670578182fd5b803561167e610fc582611ec9565b818152896020838501011115611692578384fd5b81602084016020830137908101602001929092525093969295509093509190565b6000806000606084860312156116c7578081fd5b83356116d281611f5c565b925060208401356116e281611f5c565b929592945050506040919091013590565b600060208284031215611704578081fd5b815167ffffffffffffffff81111561171a578182fd5b8201601f8101841361172a578182fd5b610ac384825160208401610fb7565b60006020828403121561174a578081fd5b813567ffffffffffffffff811115611760578182fd5b610ac384828501611054565b6000806040838503121561177e578182fd5b823567ffffffffffffffff811115611794578283fd5b6117a085828601611054565b95602094909401359450505050565b6000602082840312156117c0578081fd5b5051919050565b60008284527f07ffffffffffffffffffffffffffffffffffffffffffffffffffffffffffffff8311156117f8578081fd5b6020830280836020870137939093016020019283525090919050565b60008284528282602086013780602084860101526020601f19601f85011685010190509392505050565b60008151808452611856816020860160208601611f30565b601f01601f19169290920160200192915050565b6000813561187781611f5c565b6001600160a01b0316835261188f6020830183611eeb565b604060208601526118a4604086018284611814565b95945050505050565b60ff169052565b6000828483379101908152919050565b600060a082016001600160a01b03808b1684526020818b1681860152818a16604086015260a0606086015282915087835260c085019150889250835b888110156119295763ffffffff61191685611065565b1683529281019291810191600101611900565b5050838103608085015261193e8186886117c7565b9b9a5050505050505050505050565b6001600160a01b039586168152938516602085015291909316604083015263ffffffff9092166060820152608081019190915260a00190565b60006001600160a01b03808a16835280891660208401525060a060408301526119b360a0830187896117c7565b82810360608401526119c68186886117c7565b905082810360808401526119da818561183e565b9a9950505050505050505050565b6001600160a01b039384168152919092166020820152604081019190915260600190565b60006001600160a01b03808816835280871660208401525084604083015283606083015260a06080830152610efe60a083018461183e565b6001600160a01b03988916815296881660208801529490961660408601526060850192909252608084015260ff1660a083015260c082019290925260e08101919091526101000190565b60006101008083016001600160a01b03808f1685526020818f16818701528360408701528293508c8352610120860193508d9250845b8d811015611aeb578335611ad781611f5c565b831685529381019392810192600101611ac4565b505050508281036060840152611b0281898b6117c7565b915050856080830152611b1860a08301866118ad565b60c082019390935260e0015298975050505050505050565b6001600160a01b0397881681529590961660208601526040850193909352606084019190915260ff16608083015260a082015260c081019190915260e00190565b60006001600160a01b03861682528460208301528360408301526080606083015261094f608083018461183e565b6000602080830181845280855180835260408601915060408482028701019250838701855b82811015611bf257603f19888603018452611be085835161183e565b94509285019290850190600101611bc4565b5092979650505050505050565b602080825281810183905260009060408084018583028501820187855b888110156113a657878303603f190184528135368b9003605e19018112611c41578788fd5b8a0160608135611c5081611f5c565b6001600160a01b03168552611c6782890183611eeb565b828a880152611c798388018284611814565b92505050611c8987830183611eeb565b925085820388870152611c9d828483611814565b96890196955050509186019150600101611c1c565b602080825281810183905260009060408482028401810190840186845b87811015611d1357868403603f190183528135368a9003603e19018112611cf4578687fd5b611d00858b830161186a565b9450509184019190840190600101611ccf565b5091979650505050505050565b6020808252825182820181905260009190848201906040850190845b81811015611d5857835183529284019291840191600101611d3c565b50909695505050505050565b600060208252610848602083018461183e565b6001600160a01b0386811682528581166020830152841660408201526060810183905260a0810160028310611da857fe5b8260808301529695505050505050565b6020808252600e908201527f696e76616c69642073656e646572000000000000000000000000000000000000604082015260600190565b60208082526012908201527f4d6f6465206e6f7420737570706f727465640000000000000000000000000000604082015260600190565b600060208252610848602083018461186a565b90815260200190565b6000808335601e19843603018112611e58578283fd5b83018035915067ffffffffffffffff821115611e72578283fd5b60200191503681900382131561102e57600080fd5b60405181810167ffffffffffffffff81118282101715611ea357fe5b604052919050565b600067ffffffffffffffff821115611ebf57fe5b5060209081020190565b600067ffffffffffffffff821115611edd57fe5b50601f01601f191660200190565b6000808335601e19843603018112611f01578283fd5b830160208101925035905067ffffffffffffffff811115611f2157600080fd5b80360383131561102e57600080fd5b60005b83811015611f4b578181015183820152602001611f33565b83811115610d285750506000910152565b6001600160a01b0381168114611f7157600080fd5b5056fe5361666545524332303a204552433230206f7065726174696f6e20646964206e6f742073756363656564a264697066735822122030cee306a2c586eff23c346c6e82c0821bfa4d962836d411541ec029f782a29064736f6c63430007060033",
    "linkReferences": {}
  },
  "methodIdentifiers": {
    "advancedPipe((address,bytes,bytes)[],uint256)": "b452c7ae",
    "batchTransferERC1155(address,address,uint256[],uint256[])": "a9412a59",
    "etherPipe((address,bytes),uint256)": "6e47d07b",
    "farm(bytes[])": "300dd6cf",
    "multiPipe((address,bytes)[])": "cabec62b",
    "permitDeposit(address,address,address,uint256,uint256,uint8,bytes32,bytes32)": "120b5702",
    "permitDeposits(address,address,address[],uint256[],uint256,uint8,bytes32,bytes32)": "d5770dc7",
    "permitERC20(address,address,address,uint256,uint256,uint8,bytes32,bytes32)": "b442b398",
    "permitERC721(address,address,uint256,uint256,bytes)": "4935ed43",
    "permitToken(address,address,address,uint256,uint256,uint8,bytes32,bytes32)": "7c516e94",
    "pipe((address,bytes))": "08e1a0ab",
    "readPipe((address,bytes))": "dd756c4f",
    "transferDeposit(address,address,address,uint32,uint256)": "9e32d261",
    "transferDeposits(address,address,address,uint32[],uint256[])": "0d2615b1",
    "transferERC1155(address,address,uint256,uint256)": "0a7e880c",
    "transferERC721(address,address,uint256)": "1aca6376",
    "transferToken(address,address,uint256,uint8,uint8)": "6204aa43"
  },
  "id": 0
}